:020000040800F2
:1000000010B80020C5010008715B00080952000803
:100010005D5B0008591F0008996E00080000000091
:10002000000000000000000000000000216800083F
:10003000C120000800000000055D000823680008DA
:10004000DF010008DF010008DF010008DF01000810
:10005000DF010008DF010008DF010008DF01000800
:10006000DF010008DF010008DF010008DF010008F0
:10007000DF010008DF010008DF010008DF010008E0
:10008000F91F0008DF010008E9180008DF01000877
:10009000DF010008DF010008DF010008DF010008C0
:1000A000DF010008DF010008DF010008DF010008B0
:1000B000DF010008DF010008DF010008DF010008A0
:1000C000DF010008DF010008DF010008DF01000890
:1000D000DF0100088D6E0008DF010008DF01000865
:1000E000DF010008DF010008DF010008DF01000870
:1000F000DF010008D1680008DF010008DF01000807
:10010000DF010008DF010008DF010008DF0100084F
:10011000DF010008DF010008DF010008DF0100083F
:1001200005200008DF01000811200008DF01000899
:10013000DF010008DF010008DF010008DF0100081F
:10014000DF010008DF010008DF010008DF0100080F
:10015000DF010008DF010008DF010008DF010008FF
:10016000DF010008DF010008DF010008DF010008EF
:10017000DF010008DF010008DF01000800000000C7
:10018000DF010008DF010008DF010008DF010008CF
:10019000DF010008DF010008DF010008DF010008BF
:1001A000DF010008DF010008DF010008DFF810D0E0
:1001B00000F0FCFB00480047BDF00008AFF30080F2
:1001C00010B800200648804706480047FEE7FEE7D3
:1001D000FEE7FEE7FEE7FEE7FEE7FEE7FEE7FEE7F7
:1001E000C1680008AD0100082DE9F05F0546002058
:1001F00092469B4688460646814640241BE0284698
:1002000041464746224600F0D1F953465A46C01AA5
:10021000914110D311461846224600F0B8F92D1A24
:1002200067EB01084F4622460120002100F0AFF99C
:1002300017EB00094E41201EA4F10104DFDC484603
:1002400031462A464346BDE8F09F40EA01039B073A
:1002500003D009E008C9121F08C0042AFAD203E03B
:1002600011F8013B00F8013B521EF9D27047D2B29F
:1002700001E000F8012B491EFBD270470022F6E78F
:1002800010B513460A4604461946FFF7F0FF20460C
:1002900010BD421E12F8013F002BFBD111F8013BAB
:1002A00002F8013B002BF9D1704710B5044604E079
:1002B0000B7800F8013B03B1491C521EF8D22046CE
:1002C00010BDCAB2401E10F8011F8A4202D0002998
:1002D000F9D100207047421C10F8011B0029FBD106
:1002E000801A704710B5002200E0521C835C8C5CC1
:1002F000A34201D1002BF8D1D8B2E1B2401A10BD0F
:1003000030B504460020034600E05B1C934203D254
:10031000E05CCD5C401BF8D030BD10B5044600E079
:10032000401C0378002BFBD100E0401C521E04D37C
:1003300011F8013B0370002BF7D10021017020461A
:1003400010BD034611F8012B00F8012B002AF9D14A
:100350001846704730B505460020034600E05B1C98
:10036000934205D2EC5CC85C201A01D1002CF6D176
:1003700030BD000070B50F4D00B92868002412E0B0
:100380000A4602E09E4203D0521C1378002BF9D19A
:10039000DAB2224305D02BB124B1002100F8011BB1
:1003A00004E00446401C0678002EE9D1286020466F
:1003B00070BD0000540100200022CBB201789942A8
:1003C00000D10246401C0029F8D11046704730B5D4
:1003D00003461D783DB10A4612F8014B1CB1AC42F0
:1003E000FAD15B1CF5E7181A30BD30B50546002080
:1003F00008E00A4602E0A34207D0521C1378002B03
:10040000F9D1401C2C5C002CF3D130BDF0B480EA53
:100410000102D40F4200B2EB410F02D2024608465D
:1004200011464A0042D0C30DDDB2C1F3C752AD1A26
:10043000202D35DAC1F3160141F4000204B1524215
:10044000C5F1200602FA06F12A411044B3EBD05F51
:1004500023D0C4B1012DA0EBC35009DCF0BC4FF098
:10046000004202EAC352DBB200F5000000F0B7B868
:10047000400000F1807000EBC350A0F1807040EAB2
:10048000D170490009E0490841EAC071A0EBC350AE
:1004900000F50000400800EBC350F0BC00F096B837
:1004A0006142012202EB4101001BF6E7F0BC7047FC
:1004B00081F00041AAE780F00040A7E780EA01024E
:1004C00010B502F00043400022D04A001FD0010EB8
:1004D00001EB1261C0F35600C2F3560240F4000073
:1004E00042F40002A0FB022000047F39140400D073
:1004F000401C50EA124001D44000491EC2B20C0612
:1005000004EBD010401C4008802A02D003E00020F9
:1005100010BD20F00100002900DA0020184310BDB2
:1005200030B4044696230800214604D0B62330BCDC
:10053000002200F054B820460021F8E700F0004205
:1005400030F000400AD0C10D01F56071C0F3160013
:1005500042EA0151C208400711437047002001469A
:10056000704730B50B46014600202022012409E0E7
:1005700021FA02F59D4205D303FA02F5491B04FA5C
:1005800002F52844151EA2F10102F1DC30BD202A3B
:1005900004DB203A00FA02F1002070479140C2F1DA
:1005A000200320FA03F3194390407047202A04DB0C
:1005B000203A21FA02F00021704721FA02F3D040DC
:1005C000C2F1200291400843194670470029A8BF94
:1005D0007047401C490008BF20F00100704710B46C
:1005E000B0FA80FC00FA0CF050EA010404BF10BC21
:1005F000704749B1CCF1200421FA04F411FA0CF14E
:1006000018BF012121430843A3EB0C01CB1D4FEA86
:1006100000614FEA102042BF002010BC704700EB81
:10062000C35010440029A4BF10BC7047401C4900AF
:1006300008BF20F0010010BC70472DE9FE4F804636
:1006400081EA0300C00F0C46009021F0004123F026
:100650000045B8EB0200A94105D24046214690462C
:100660001C460B46024623F00040104347D0270D9E
:10067000C7F30A00C3F30A510290401A01904028C0
:100680006BDAC3F3130040F4801B0098924620B14C
:100690000023D2EB030A63EB0B0B01985946C0F120
:1006A00040025046FFF773FF06460D465046594636
:1006B000019A00F08DF910EB08006141002487EAEF
:1006C000115284EAE7731A4340D0009A62B3019A48
:1006D000012A4FEA075215DC001B61EB02014FF0C3
:1006E000004202EA0752CDE90042001C41F58011A8
:1006F00032462B4600F08DF903B0BDE8F08F40463E
:100700002146F9E7001B61EB0201001C41F5801353
:1007100000185B412018A2F5001747EB030140EADF
:10072000D570B6196D4111E06D084FEA360645EAFD
:10073000C0754FEA0752001B61EB0201001C41F536
:10074000801149084FEA30000019514132462B46CA
:1007500003B0BDE8F04F00F04DB900980122400011
:100760000023D0EB020263EBE073009821464FEACE
:10077000E074B8EB000061EB0401E9E783F00043AB
:100780005BE781F0004158E72DE9FE4F81EA030461
:1007900004F0004421F0004100944FF0000B23F0DE
:1007A000004350EA01045ED052EA03045BD0C3F375
:1007B0000A54C1F30A552C44A4F2F3340194A0FB6B
:1007C0000254C1F3130141F48011C3F3130343F442
:1007D000801301FB024400FB034E840A970A44EA9B
:1007E000815447EA8357A4FB076802958D0A05FBED
:1007F00007854FEA932C04FB0C542705029D4FEA12
:10080000065847EA1637B5EB08056EEB070C870E5E
:10081000920E47EA811742EA8312A7FB0201B6EB68
:100820000B0164EB00042B0D43EA0C335E1844EB20
:100830001C50DA465146E7FB0201C5F313044FEAA8
:100840000B3343EA14534FEA0432019C43EA060394
:10085000A4F10C040294009CCDE900B400F0D9F896
:1008600003B0BDE8F08F00200146F9E72DE9F04D17
:1008700081EA030404F0004B21F0004514464FF0D8
:10088000000A23F0004150EA050220D054EA010298
:100890001DD0C5F30A570246C5F31303C1F3130075
:1008A000C1F30A5640F4801543F48013A7EB060801
:1008B000101BD64608F2FD3873EB050002D308F191
:1008C000010801E092185B41B8F1000F03DA002043
:1008D0000146BDE8F08D00204FF4801106468446A5
:1008E0000EE0171B73EB050705D3121B63EB050323
:1008F00006434CEA010C49084FEA300092185B416C
:1009000050EA0107EDD152EA030012D082EA040056
:1009100083EA0501084305D0101BAB4106D2012232
:10092000002306E000224FF0004302E06FF00102D6
:1009300053101AEB06004CEB085110EB0A0041EB88
:100940000B01BDE8F04D00F055B8C1F30A52C1F3F8
:10095000130140F2FF3341F480119A4202DA002081
:100960000146704740F233439A42A2F2334202DC1E
:100970005242FFF71BBEFFF70ABE000030B5041E4F
:1009800071F1000404DB4FF00044404264EB0101CC
:10099000141E73F1000405DB1C464FF00043524265
:1009A00063EB0403994208BF904230BD064C074DEB
:1009B00006E0E06840F0010394E80700984710342F
:1009C000AC42F6D3FFF7F6FBD0590408F0590408FF
:1009D000202A06DBCB17203A41FA02F043EAE07303
:1009E00006E041FA02F3D040C2F1200291400843F0
:1009F0001946704710B5141E73F1000408DA401C44
:100A000041F1000192185B411A4301D120F001002D
:100A100010BD2DE9F04D92469B4611B1B1FA81F21D
:100A200002E0B0FA80F220329046FFF7B0FD0446B3
:100A30000F4640EA0A0041EA0B0153465A46084372
:100A400013D0114653EA010019D0C8F140025046B4
:100A5000FFF7ACFD05460E46504659464246FFF7A5
:100A600096FD084305D0012004E020463946BDE844
:100A7000F08D0020054346EAE0762C4337430A9880
:100A80006305E40AA0EB08000022FD0A44EA47548B
:100A90000A3002D500200146E9E701051019694135
:100AA000DDE9084500196941BDE8F04DA2E770B5E0
:100AB0008C1810F8015B15F0070301D110F8013B09
:100AC0002A1106D110F8012B03E010F8016B01F890
:100AD000016B5B1EF9D12B0705D40023521E0DD4E8
:100AE00001F8013BFAE710F8013BCB1A921C03E036
:100AF00013F8015B01F8015B521EF9D5A142D8D36E
:100B0000002070BD2DE9F04701264FEA42084FEA68
:100B100051090024002506EB510C6FF0010606EB8D
:100B2000510E00BFADB26600AC4228D250F826701C
:100B300050F83520E900043140F8262040F835709F
:100B400046F0010250F822A0475840F8227040F8C1
:100B500001A004EB0C0105EB0C0750F831A050F894
:100B6000372040F83120C90040F837A0FF00043199
:100B7000043750F801A0C259425040F807A000EBDA
:100B800086014D448A6850F835608E6040F8352003
:100B9000ED000435CA684659CE604251A21C03EBF1
:100BA000080194B21D880B46744588BFBDE8F087E4
:100BB000B8E7B0B582B00C46054683894268018823
:100BC0008078012805D128690090204600F078FB44
:100BD00002E0204600F0C0F8E87801281CBF02B00F
:100BE000B0BDAB68EA892988204602B0BDE8B040B4
:100BF000FFF788BF4DF6D01CFF29C0F6030CC0F8E4
:100C000004C00180C37082704DF2CE124FF0FF031A
:100C1000C0F603020DDDB1F5807F13D0B1F5805F22
:100C200015D0B1F5806F21D106324FF06A510423FF
:100C300017E010290FD0402918D17E324FF07251A1
:100C400040230EE01E324FF06E51102309E04FF0AA
:100C50006651012305E002F5FF724FF076514FF423
:100C60008073C381838100230161826058B2704721
:100C70002DE9F04381B00546002090460C46B0EBCC
:100C8000920F4CD04FEA9800C0F10009D5E9000757
:100C90000146FFF713FC064638463946FFF70EFCBF
:100CA00001463046FFF7B2FB0FF0A6FC2060D5E905
:100CB00002060146FFF702FC074630463146FFF7C1
:100CC000FDFB01463846FFF7A1FB0FF095FC606085
:100CD000D5E904060146FFF7F1FB074630463146E9
:100CE000FFF7ECFB01463846FFF790FB0FF084FC62
:100CF000A060D5E906060146FFF7E0FB074630464F
:100D00003146FFF7DBFB01463846FFF77FFB0FF06C
:100D100073FCE0601034203519F10109B6D118F0E8
:100D2000030016D0474200BFD5E900060146FFF791
:100D3000C5FB804630463146FFF7C0FB01464046C2
:100D4000FFF764FB0FF058FC44F8040B083501373B
:100D5000EAD101B0BDE8F0832DE9F04FA3B083469E
:100D600000200C91144604931E9206922292A0EB4E
:100D7000910718018908CDF808B00B90D8000191AF
:100D800005910A9003EB4300C0000990C800219030
:100D90000801209001EB4100C0001F90CDE91C47E5
:100DA0002098DBF804A05BF800108046DBF8000018
:100DB000CDF84CA017911690FFF728FB21991F9AA8
:100DC000074619905BF801000E465BF802101546C5
:100DD00015901491FFF71AFB814638464946FFF7F4
:100DE00015FB0BEB05014F681B910BEB06014E68E1
:100DF0000F910BEB08011A91496811971096129107
:100E0000D4E90082CBF8000050460D92FFF7FEFABD
:100E1000054630463946FFF7F9FA0446284621468A
:100E2000FFF7F4FACBF8040019984946FFF740FBA6
:100E3000064628462146FFF73BFB0446304641461E
:100E4000C246FFF73BFB0D9F054620463946FFF79C
:100E500035FB01462846FFF7D9FA2299DDF878805C
:100E60000A68496818921991D8E900910E91219960
:100E70004BF8010050462146FFF720FB0446304660
:100E80003946FFF71BFB01462046FFF711FB0F9980
:100E90004860DDE91601FFF70BFB16900446DDE91B
:100EA0001410FFF705FB17900546DDE91210FFF758
:100EB000FFFA15900646DDE91001FFF7F9FA07463B
:100EC00020463946FFF7A2FA044630462946FFF786
:100ED000EFFA0546204649464E46FFF7EFFADDF8A1
:100EE0003890824628464946FFF7E8FA01465046C0
:100EF000FFF78CFA20994BF8010028463146FFF79E
:100F0000DDFA054620464946FFF7D8FA014628464D
:100F1000FFF7CEFA1A99486016983946FFF7C8FAD3
:100F2000814615981799FFF771FA189C05464846AF
:100F30002146FFF7C3FA199F064628463946FFF7B0
:100F4000BDFA01463046FFF761FA1F994BF80100E0
:100F500028462146FFF7B2FA054648461C9C39460A
:100F6000FFF7ACFA01462846FFF7A2FA1B991D9F2E
:100F70000BF1080B48600B982299013704440A983A
:100F800080440998CDF87880014422917FF406AF1F
:100F90000C981428C0F02F81059B00BF4FF0FF3044
:100FA0009908DDF80880DF00002500220F9300EB90
:100FB0009300CC000E0103910890049880000490E7
:100FC00080B2079001EB4100CDE921464FEAC0090C
:100FD000CDE90D97DDF818C002EB420E09925CF8DE
:100FE0003E105CF832001491110115905CF801007C
:100FF000043113905CF80100D100043112905CF8C8
:10100000010011904FEACE0004305CF8000010900F
:10101000CDE90A85209558F80610D8F80000D8F8D0
:1010200004501C911D901995FFF7F0F9824658F86D
:10103000040058F809101B901A91FFF7E7F983464E
:1010400050465946FFF7E2F908EB090108EB04099D
:101050004E681F912299D9F8047041441896179749
:101060001E914968C8F8000028461691FFF7CEF98E
:10107000044638463146FFF7C9F906462046314650
:10108000FFF7C4F9C8F8040050465946FFF710FAB4
:10109000824620463146FFF70BFA139F044651461D
:1010A0003846FFF70BFA129D064621462846FFF701
:1010B00005FA01463046FFF7A9F9219948F80100E1
:1010C00038462146FFF7FAF9044628465146FFF70D
:1010D000F5F901462046FFF7EBF9C9F80400DDE910
:1010E0001C10FFF7E5F91C900446DDE91A10FFF724
:1010F000DFF905461D9019981699FFF7D9F9814631
:10110000DDE91701FFF7D4F9074620463946FFF716
:101110007DF9044648462946FFF7CAF9DDF854A090
:10112000054621465046FFF7C9F9DDF844B00646AA
:1011300029465846FFF7C2F93146FFF767F9229969
:1011400048F8010050462946FFF7B8F905465846C9
:101150002146FFF7B3F901462846FFF7A9F91E9982
:1011600048601C983946FFF7A3F91D998246484606
:10117000DDF83490FFF74AF9149F0546514638468A
:10118000FFF79CF9109C064629462046FFF796F982
:101190003146FFF73BF948F8090038462946FFF782
:1011A0008DF9054620465146219CFFF787F90146F7
:1011B0002846FFF77DF9229EDDE90E73DDE91F1554
:1011C00048600C981D44B8448542FFF423AF07984B
:1011D000099A0B9DDDF8288002440898013508F132
:1011E000080885427FF6F6AE0599039B8808132907
:1011F00005903FF6D3AE0198029C404222902568AC
:101200006068A6686169E7681D951F9021961E9128
:10121000FFF74EF9A169804630462091FFF748F963
:10122000814640464946FFF7F1F8E669E061284605
:1012300021691C91FFF73CF9824638463146FFF799
:1012400037F9834650465946FFF732F9A0614046C8
:101250004946FFF72DF9606150465946FFF7D6F829
:101260002061DDE91E10FFF7D1F88046384631468F
:10127000FFF7CCF8054640462946FFF719F9E0602C
:10128000DDE91C10FFF7C2F80646DDE92010FFF784
:10129000BDF8074630463946FFF70AF9A0604046D8
:1012A0002946FFF7B3F8606030463946FFF7AEF8DD
:1012B0002060229820340130A0D123B0BDE8F08F07
:1012C0002DE9F04FA3B0834600200B911446039301
:1012D0001D9205922292A0EB910718018908CDF882
:1012E00004B00C90D800009104910A9003EB4300E5
:1012F000C0000990C800209008011F9001EB410038
:10130000C0001E90CDE91B471F98DBF800205BF85A
:1013100000108146DBF804001692219010461591CA
:10132000FFF774F820991E9A80465BF801000E467C
:101330005BF80210154614901391FFF767F8824688
:1013400040465146FFF762F80BEB05014F681A91D2
:101350000BEB06014E680F910BEB090119914968DF
:10136000119712961091D4E90092CBF800002198C1
:101370000D92FFF74BF8054630463946FFF746F821
:10138000044628462146FFF741F8CBF804004046C2
:101390005146FFF78DF8064628462146FFF788F8A4
:1013A000044630464946FFF789F80D9F054620461A
:1013B0003946FFF783F801462846FFF779F8229966
:1013C000DDF874800A68496817921891D8E900A17D
:1013D0000E9120994BF8010048462146FFF76EF820
:1013E000044630463946FFF769F801462046FFF7C4
:1013F0000DF80F994860DDE91510FFF759F81590C1
:101400000446DDE91310FFF753F8054616902198BE
:101410001099FFF74DF821900746DDE91110FFF70D
:1014200047F8064620463146FFF742F8044638465C
:101430002946FEF7EBFF0546204651465746FFF783
:101440003DF8DDF83890824628464946FFF736F8E1
:1014500001465046FFF72CF81F994BF8010028462B
:101460003946FFF72BF8054620464946FFF726F890
:1014700001462846FEF7CAFF19994860159831467B
:10148000FEF7C4FF814621981699FFF711F8179CC3
:10149000054648462146FFF711F8189F064628469C
:1014A0003946FFF70BF801463046FFF701F81E9961
:1014B0004BF8010028462146FFF700F8054648464C
:1014C0001B9C3946FEF7FAFF01462846FEF79EFFB1
:1014D0001A991C9F0BF1080B48600C982299013750
:1014E00004440A9880440998CDF8748001442291FC
:1014F0007FF408AF0B981428C0F02E81049B00BF26
:101500004FF0FF309908DDF80490DF00002500243B
:1015100000EB93000E0102910790C8000D90039814
:101520008000039080B2069001EB4100CDE90E737C
:1015300022964FEAC008CDF8308000BF059A04EB30
:10154000440C089452F83C1052F8340014912101D4
:1015500015905058043113905058E1000431129006
:10156000505811904FEACC00043010581090CDE93B
:10157000099500BF59F80610D9F80000D9F80440C1
:10158000DDF834A021951D911E901A94FEF73EFFC0
:1015900059F808100546169059F80A001C901B913E
:1015A000FEF734FF834628465946FEF72FFF09EB26
:1015B000080109EB0A084F6820912299D8F80460C5
:1015C0004944179719961F914968C9F800002046A9
:1015D0001891FEF71BFF054630463946FEF716FF09
:1015E000044628462146FEF711FFC9F80400169864
:1015F0005946FEF75DFF834628462146FEF758FF11
:10160000139F044659463846FEF758FF129E05467A
:1016100021463046FEF752FF01462846FEF748FFB6
:1016200049F80A0038462146FEF748FF044630468E
:101630005946FEF743FF2146FEF7E8FEC8F80400CE
:10164000DDE91D10FEF734FF1D900446DDE91B1097
:10165000FEF72EFF05461E901A981899FEF728FFF0
:10166000824619981799FEF723FF07462046394608
:10167000FEF71EFF044650462946FEF7C7FEDDF87A
:1016800054B0054621465846FEF718FFDDF8448061
:10169000064629464046FEF711FF01463046FEF752
:1016A00007FF229949F8010058462946FEF706FF30
:1016B000054640462146FEF701FF01462846FEF753
:1016C000A5FE1F9948601D983946FEF79FFE1E999A
:1016D00083465046DDF83080FEF7EAFE149F05464B
:1016E00059463846FEF7EAFE109C06462946204633
:1016F000FEF7E4FE01463046FEF7DAFE49F8080040
:1017000038462946FEF7DAFE054620465946FEF7DA
:10171000D5FE01462846FEF779FE20AEDDE90E73C0
:1017200062CE1D44B94448600B988542FFF422AF55
:101730000698089C0A9DDDF824900444079801351A
:1017400009F1080985427FF6F9AE0499029B8808E1
:10175000132904903FF6D4AE0098019C2C9E404281
:10176000229025686068A7686169D4F80CB01D955F
:101770001F9021971E91FEF79BFEA1698046384677
:101780002091FEF795FE814640464946FEF790FEC1
:101790003146FEF793FEE769E06128462669314647
:1017A000FEF786FE8246584639465D46FEF780FEC5
:1017B000834650465946FEF729FE2C99FEF77EFED9
:1017C000A06140464946FEF721FE2C99FEF776FEC1
:1017D000606150465946FEF76BFE2C99FEF76EFE8F
:1017E0002061DDE91E10FEF711FE804628463946CD
:1017F000FEF70CFE054640462946FEF759FE2C9999
:10180000FEF75CFEE0601D983146FEF7FFFD0646E0
:10181000DDE92010FEF7FAFD074630463946FEF7AF
:1018200047FE2C99FEF74AFEA06040462946FEF787
:10183000EDFD2C99FEF742FE606030462C9E394645
:10184000FEF7E4FD3146FEF739FE20602298203491
:10185000013085D123B0BDE8F08F10B50146806B13
:10186000026C12F0500F05D0026CD20626D500F0A3
:1018700030FE10BD016C41F40071016401688A689A
:1018800012F0405F17D1027EAAB9CA6A12F4700F33
:1018900002D08A6852050ED44A6822F020024A60BB
:1018A000016C21F480710164016CC90403D4016CE2
:1018B00041F00101016400F0FDFD10BD806BC26CC0
:1018C000BDE810400846104710B5806B4021016408
:1018D000416C41F00401416400F0FBFD10BD10B506
:1018E000806B00F0F5FD10BD014800F0F3BD000075
:1018F000FC010020464910B54A6822F440324A6093
:101900004A6843681A434A6001684A6822F4807250
:101910004A6001684A68036942EA03224A60016832
:101920004A6822F040724A6001684A6883681A4334
:101930004A6001688A6822F400628A6001688A68E5
:10194000C3681A438A60816A6FF07062D14201688D
:101950008A6822F070628A6001688A680CD0836AA3
:101960001A438A6001688A6822F040528A600168DE
:101970008A68C36A1A4301E022F040528A60016813
:101980008A6822F002028A6001688A68037E42EA5D
:1019900043028A6090F82010002901684A680FD03D
:1019A00042F400624A6001684A6822F460424A6078
:1019B00001684A68174C436A04EB43331A4301E059
:1019C00022F400624A600168CA6A22F47002CA62A4
:1019D0000168CA6A838B104C04EB03531A43CA6232
:1019E00001688A6822F400728A6001688A6890F847
:1019F000303042EA43228A6001688A6822F48062B9
:101A00008A6001688A68406942EA8020886010BD67
:101A10000023014000E0FFFF0000F0FF2DE9F0414E
:101A20000C462DED048B054607F00AFDDFED690A33
:101A3000002180EE809A9FED680ADFED680A684A0F
:101A40004FF480669FED678A55F8210001EE100A79
:101A500002EBC100491CB8EE411AB14221EE001A56
:101A600021EE201A80ED001A80ED018AECDB5C4942
:101A7000A1F11400FFF79DF832465B495848FFF783
:101A8000F7F8594E00250120D6ED009AF0EE488A6D
:101A90005FEA402706EB800191ED000AB4EEE80A08
:101AA000F1EE10FA02DDF0EE408A0546401CB84225
:101AB000F0DB00EE105AB8EEC00A20EE090ADFEDA6
:101AC0004B0A20EE200A03F06FFF84ED000AB1EE0E
:101AD000040A28EE800AB4EEE90AF1EE10FA06D202
:101AE00084ED008A0020BDEC048BBDE8F08118EE87
:101AF000900A3F4988426BDBA8006900B0EE489A23
:101B00000446B8420EDD3C460CE000BF06EB810205
:101B100092ED000AB4EEC90AF1EE10FA01DDB0EE62
:101B2000409A491CA142F1DB05EB45014900B0EEAA
:101B3000480AB9420EDD39460CE000BF06EB8002D0
:101B4000D2ED000AF4EEC00AF1EE10FA01DDB0EEBB
:101B5000600A401C8842F1DBDFED260A68EEA00A2D
:101B6000F4EEC90AF1EE10FA01DDB0EE489AF4EE97
:101B7000C00AF1EE10FA01DDB0EE480AB5EEC09AE7
:101B8000F1EE10FA02DDC9EE280A01E0F0EE480A93
:101B9000B5EEC00AF1EE10FA01DD80EE288A10EEF3
:101BA000901A1548814205DA18EE101A814201DABE
:101BB000012098E710EE900A1049884201DD0220CA
:101BC00091E710EE900A0E49884201DD03208AE772
:101BD000FF2088E7002474490000803933335340E4
:101BE0000C580020000000000C7800200000803A13
:101BF0000000A040CDCC4C3DCDCC4C3DCDCC4C3E9E
:101C00008988883DF0B50E462DED0A8B81B0ADF583
:101C1000805D044607F014FCDFED9E0A80EE80AA8A
:101C200096ED010A9FED9C8AB5EEC00AF1EE10FA1E
:101C300015D886ED068A86ED078A86ED088A86ED38
:101C4000098A86ED0A8A86ED0B8A86ED0C8A86ED76
:101C50000D8A01B00DF5805DBDEC0A8BF0BD002151
:101C60009FED8E0A9FED8E1A8E484FF4806500BF5F
:101C700054F8212000EE902A00EBC102491CF8EE36
:101C8000600AA94260EE800A60EE810AC2ED000A95
:101C900082ED018AECDB8349A1F11400FEF789FF94
:101CA0006F462A4639467F48FEF7E2FF96ED010A65
:101CB00003F0DAFEDFED7C0A60EE200A80EE8A0A8D
:101CC000F6EE000A30EE200ABDEEC00A10EE105A01
:101CD00007EB85002946D0ED009A724800F04CFAD7
:101CE000E81705EB450105EB9072A1EBA200F0EEC1
:101CF00040BA01EBA20CA84200DA681C4FF4007352
:101D0000591E9C4500DB8C46F0EE488A00240CE00E
:101D100007EB800E9EED000AB4EEE80AF1EE10FA31
:101D200002DDF0EE408A0446401C6045F0DD05EB24
:101D30008505A5EBA20005EBA202651CA84200DA0E
:101D4000601C9A4200DB0A46B0EE489A00250CE07F
:101D500007EB800191ED000AB4EEC90AF1EE10FA2A
:101D600002DDB0EE409A0546401C9042F0DD9FED4A
:101D70004F0A29EE800AB4EEE80AF1EE10FA02DD0D
:101D8000F0EE488A0024B4EEC90AF1EE10FA02DD42
:101D9000B0EE489A0025002C06DD2146414800F0AF
:101DA000EBF9B0EE40BA01E0B0EE48BA002D06DD26
:101DB00029463C4800F0E0F9F0EE40AA01E0F0EEE0
:101DC00048AADFED3B0A002C08DD00EE104AB8EE11
:101DD000C00A20EE0A0A20EE200A01E0B0EE480A0E
:101DE000002D08DD01EE105AB8EEC11A21EE0A1AD4
:101DF00021EE20AA01E0B0EE48AA002C04DD03F099
:101E0000D3FDB0EE40CA01E0B0EE48CA002D04DDBB
:101E1000B0EE4A0A03F0C8FD01E0B0EE480AF5EE64
:101E2000C09A86ED06CAF1EE10FAC6ED078A86ED75
:101E300008BA02DDC8EEA90A01E0F0EE480AF5EEA4
:101E4000C09AC6ED090A86ED0A0AF1EE10FA86ED8F
:101E50000B9AC6ED0CAA01DD89EE298A002C86EDCD
:101E60000D8A07DDF0EE6B0AB0EE4B0A00F076F853
:101E700086ED080A002D7FF7ECAEF0EE6B0AB0EEAF
:101E80006A0A00F06BF886ED0C0A01B00DF5805D72
:101E9000E2E60000002474490000000000008039E0
:101EA000333353400C58002000008044CDCC4C3DCF
:101EB0000000803A0146014802F042B86C0300205D
:101EC00010B5044802F04EF8042801D0012010BDDE
:101ED000002010BD6C03002010B500F015F801289B
:101EE00001D0012010BD074802F052F8044634B971
:101EF0004FF40061034801F0CBFE00B101242046FD
:101F000010BD00006C03002081B0012000909DF8FE
:101F1000000001B07047000038B50024009313465C
:101F20000A460146034802F0D7F800B101242046D2
:101F300038BD00006C03002038B500240093134620
:101F40000A460146034802F0B7F900B101242046D1
:101F500038BD00006C030020FEE7000030EE600A90
:101F6000DFED090A094901E030EE600A10EE100ABF
:101F70008842F9DC064900BF10EE100A884202D3FD
:101F800030EE200AF8E77047DB0FC940DB0F49400D
:101F9000DB0F49C010B5846B204600F0CBFC01205C
:101FA000207110BD10B5846B204600F099FC012013
:101FB000207110BD10B5846B206940F004002061D1
:101FC000204600F0B9FC0120207110BD10B5846BD3
:101FD000206940F004002061204600F083FC0120CD
:101FE000207110BD10B5806B00F0A5FC10BD10B5C0
:101FF000806B00F076FC10BD014800F0F7BD0000DA
:10200000B8020020014800F0F1BD000044020020A9
:10201000014800F0EBBD00006805002001681823AE
:10202000CAB2103AB2FBF3F2054B6FF30901032A6F
:102030009B5CC36500D9091D816508467047000097
:1020400068C0030810B5014600208B698A6A4FF00A
:10205000C07453B1B3F5005F15D072B1012A0CD032
:10206000022A0AD0032A09D104E01AB1012A06D0B3
:10207000022A03D1C96AC90100D5012010BDC96A6D
:10208000A142FAD010BD002AF7D0012AF2D0022ACC
:10209000F3D0032AF3D010BD30B50468256825F4C9
:1020A00080252560046863608368402B036803D043
:1020B00099600068C26030BD9A600068C16030BD40
:1020C000704772B6FEE70022AFF3008010B484467A
:1020D00001200E4B5C7A002C16D1587A1C54587A89
:1020E00003EB8000C0F804C0587A03F1080C00F834
:1020F0000C20587A421C5A72303008703A204870CE
:102100002F208870CC70002010BC70474C0A002033
:10211000022810D003DC40B1012804D107E00328D5
:1021200007D0FF2809D006A0704708A0704709A073
:1021300070470AA070470BA070470CA070470000C2
:10214000CEDED0A7B2A8D0CE00000000D6B1C1F735
:1021500000000000D5FDCFD2B2A80000C8FDBDC769
:10216000B2A80000B7BDB2A800000000CEB4D6AA45
:10217000B2A8D0CE0000000000EBC100D0ED000AF4
:1021800090ED010A04F006BF30B58FB00C4605464D
:10219000382214496846FEF758F8204603A904AAD5
:1021A00000F088F88DED020A204601A9FFF736FC01
:1021B0008DF8000078B19DED010AB5EEC00AF1EE90
:1021C00010FA08DD204600F00FF88DED050A69468B
:1021D0002046FFF717FD382269462846FEF735F8F6
:1021E0000FB030BD08CF030810B52DED028BF0EE17
:1021F000408A9FED2A0AF5EEC08AF1EE10FA42D924
:10220000294A9FED271ADFED270A0021B0EE408A08
:102210004FF4806450F8213000EE103A02EBC10315
:10222000491CB8EE400AA14220EE010A20EE200A25
:1022300083ED000A83ED018AECDB1B49A1F1140058
:10224000FEF7B7FCB0EE680A03F00EFCF0EE408A31
:1022500007F0F6F89FED151AC1EE000A9FED140A7B
:1022600028EE800A80EE201AB6EE000A31EE000A4F
:10227000BDEEC00A10EE101A002902DDB1F5007F94
:1022800004DBB0EE480ABDEC028B10BDBDEC028B46
:102290000548BDE81040FFF76FBF000000000000D8
:1022A00000008039333353400C5800200024744917
:1022B0000000804470B5DFED220A9FED201ADFEDAB
:1022C000211A14462DED048BB0EE419AF0EE608A8F
:1022D000B0EE600A00234FF4806500BF50F8232061
:1022E00002EE102AB8EE422A22EE212A22EE018ABC
:1022F000B4EEE88AF1EE10FA01DDF0EE488AB4EEB1
:10230000C98AF1EE10FA01D2B0EE489A08EE080A36
:1023100070EE880A5B1CAB42E0DB9FED0B1A60EEAF
:10232000810A20EE010AC1ED000A05F051F884EDA2
:10233000000A38EEC90ABDEC048B70BD333353403C
:1023400000000000000080390000803A7047000063
:1023500078B50024009490F83C20012A19D001227D
:1023600080F83C200A6807230568092A13D9EE681B
:102370000A3A02EB420293409E43EE600B788A6871
:102380000A3B03EB43039A400368DD682A43DA60A3
:1023900010E0022078BD2E6902EB420293409E437A
:1023A0002E610B788A6803EB43039A4003681D692A
:1023B0002A431A614A681F23072A13D205686E6BE5
:1023C000521E02EB820293409E436E630A8893B2D0
:1023D0000A79521E02EB820293400268556B2B432E
:1023E000536327E005680D2A12D22E6BD21F02EB31
:1023F000820293409E432E630B790A88DB1F92B2C0
:1024000003EB83039A4003681D6B2A431A6311E0B0
:10241000EE6A0D3A02EB820293409E43EE620B7924
:102420000A880D3B92B203EB83039A400368DD6A8E
:102430002A43DA621B4B0568194A9D420AD10D688E
:10244000122D07D1556825F400055560556845F4EF
:102450008005556005689D421DD1134D0B68AB4248
:1024600001D0112B17D1536823F4800353605368B4
:1024700043F4000353600968A9420CD10B490C4A8C
:102480000968B1FBF2F101EB8101490000E0491E4E
:1024900000910029FBD180F83C40002078BD00006D
:1024A0000023014000200140120000101C00002009
:1024B00040420F00044910B5884204D100F0DAF917
:1024C00002490120087010BDFC01002038010020E5
:1024D0007047704770B5044600680668456816F096
:1024E000020F05F020012AD049B3216CC90603D49C
:1024F000216C41F400712164816811F0405F17D1B3
:10250000217EA9B9C16A11F4700F02D08168490512
:102510000ED4416821F020014160206C20F48070CD
:102520002064206CC00403D4206C40F001002064BF
:102530002046FFF7BFFF21686FF01200086016F019
:10254000040F05F0800132D089B3206CC00603D49B
:10255000206C40F4005020642068816811F4401F12
:102560001ED1816B11F4401F02D08168490517D438
:102570004168490514D4816811F0405F10D1217E73
:1025800071B9416821F080014160206C20F48050D5
:102590002064206CC00503D4206C40F0010020644E
:1025A0002046FFF7D3FE21686FF00C00086016F09C
:1025B000010F05F040010FD071B120680068C0071D
:1025C0000AD0206C40F480302064204600F043F8AC
:1025D00021686FF00100086016F0200F05F080619F
:1025E0000ED000290CD0606C40F0020060642068BE
:1025F0006FF0200505602046FFF76BFF206805603F
:1026000070BD70B504004FF0000503D0206C0026AB
:1026100010B107E0012070BD204600F01DF866648F
:1026200084F83C60206CC00610D4206C20F48850E4
:1026300040F0020020642046FFF75CF96664206CDD
:1026400020F0020040F00100206400E0012584F841
:102650003C60284670BD704770B586B006461421B0
:102660006846FDF70BFE28493068884249D1274863
:102670000025016841F4807101600068234900F47D
:10268000807014390590086840F0040008600868FC
:1026900000F004000590086840F001000860086838
:1026A000032400F00100059001208DE83100694607
:1026B000174800F01FFC20208DE8310069461548BE
:1026C00000F018FC154C1448C4E900050015A5607D
:1026D000C4E90350800060618000C4E906052562FA
:1026E0002046656200F052FB08B1FFF7EAFCB463D4
:1026F000002211461220A66300F0F6FF122000F01F
:10270000E5FF06B070BD00000020014044380240E3
:102710000008024000000240106402404402002011
:10272000F8B5044600200E46009094F83C100129AC
:1027300007D0012184F83C1021688B68DB0702D0A8
:1027400011E00220F8BD8B6843F001038B60404923
:10275000404B0968B1FBF3F101EB410100E0491E78
:1027600000910029FBD121688B68DB0503D58B68BC
:1027700023F480738B6021688B68DB075DD0236C4A
:1027800040F20165AB4343F4807323644968490513
:1027900005D5216C21F4005141F480512164216C54
:1027A000C90404D5616C21F00601616400E0606435
:1027B00084F83C00A16B2948274DC863A16B2848C9
:1027C0000864A16B2748C86421686FF02200086084
:1027D0002068416841F0806141602068816841F46F
:1027E000807181602168134632464C31A06B00F045
:1027F00037FB68681C49C006206806D0884224D18F
:10280000816811F0405F13D01FE08842F8D0174A6A
:10281000904203D1D1F80423D206F1D0144A904259
:1028200013D1D1F8041301F01F011029E8D30CE0F3
:10283000816841F08041816007E0206C40F0100029
:102840002064606C40F0010060640020F8BD00006E
:102850001C00002040420F00002301405B180008CC
:10286000DF180008C91800080020014000210140BD
:102870000022014010B50446002094F83C100129C4
:102880000CD0012184F83C1021688A6822F00102F2
:102890008A6021688A68D20702D01DE0022010BD3C
:1028A0008A6822F480728A60A16B91F83520022A2E
:1028B00007D1084600F03FF918B1216C41F0400102
:1028C000216421684A6822F080624A60216C21F408
:1028D000885141F001012164002184F83C1010BDB1
:1028E00070477047704770B500B3F9B14379012B59
:1028F0001ED0012646710223037105682C6802F080
:10290000100340F6FE729A409443D1E900210A4335
:102910009A4022432A6001680A68C0249C40A2436E
:102920000A60067100214171084670BD012070BD2A
:10293000022070BD70477047704770B5040003D027
:102940002079002510B105E0012070BD6571204699
:1029500000F008F80220207125610120207100207C
:1029600070BD000070B586B0054614216846FDF7BD
:1029700085FC1F492868884237D11E480026016817
:1029800041F000510160006800F0005005901948C6
:102990001038016841F0010101600068694600F0EB
:1029A00001000590102000900320CDE90106124897
:1029B00000F0A0FA124C114820604FF06060606097
:1029C0004020C4E9020600012061400060618000EF
:1029D000A0614011C4E907062046666200F0D6F9FE
:1029E00008B1FFF76EFBAC60A56306B070BD0000D8
:1029F00000740040403802400000024088600240FD
:102A0000B80200202DE9F0410400069817460D4653
:102A10001BD0617901291BD0012666710221217129
:102A2000C5B1E2682949D163E26829491164E268C5
:102A30002849D16421680A6842F080520A6040B394
:102A40002268042828D01C3227E00120BDE8F0814C
:102A50000220FBE7A2682049D163A2681F491164E4
:102A6000A2681F49D16421680A6842F480520A6052
:102A700020B12268042804D0103203E02268083212
:102A800000E00C322068016841F400510160A06848
:102A900009E02268143200E018322068016841F031
:102AA00000510160E068394600F0DAF900216171F7
:102AB00020B1216941F004012161C7E721680A685A
:102AC00005F010039E4032430A60BFE7A51F0008CF
:102AD000EF1F0008CD1F0008951F0008E51F000824
:102AE000B51F000870B504001BD02068036801F012
:102AF00010024FF480559540AB4303602068036893
:102B0000012505FA02F29343036061B1E06800F029
:102B100012F82068016821F0005101602571002041
:102B200070BD012070BDA06800F005F82068016844
:102B300021F40051F1E72DE9F0410446876D00F0E2
:102B4000FDFA064694F835000025022806D08020BC
:102B5000606584F834500120BDE8F0812068016888
:102B600021F0160101602068416921F08001416176
:102B7000206C08B9A06C20B12068016821F0080120
:102B800001602068016821F0010101600CE000F0A3
:102B9000D5FA801B052807D920206065032084F81A
:102BA000350084F83450D7E720680068C007EED1BC
:102BB00094F85C103F208840B860012084F835000C
:102BC00084F834500020C7E790F83510022903D06C
:102BD0008021416501207047052180F8351000688B
:102BE000016821F001010160002070472DE9F843E0
:102BF00004464FF00009CDF8009063484FF4165199
:102C0000A56D0068B0FBF1F72E6894F85C10082001
:102C100000FA01F131420FD021680A6852070BD542
:102C20000A6822F004020A6094F85C108840A860E8
:102C3000606D40F00100606594F85C104FF0010891
:102C400008FA01F0304208D021684969090604D524
:102C5000A860606D40F00200606594F85C1004208C
:102C60008840304208D021680968890704D5A860E7
:102C7000606D40F00400606594F85C10102088409E
:102C8000304218D021680968090714D5A860206867
:102C90000168490304D50068000308D5A16C07E06A
:102CA0000168C90503D4016821F008010160216CA5
:102CB00009B12046884794F85C10202088403042B3
:102CC00031D021680968C9062DD5A86094F835006F
:102CD00005282068016806D0490347D5006800032D
:102CE0001DD4616C1CE021F016010160206841696F
:102CF00021F080014161206C08B9A06C20B12068EE
:102D0000016821F00801016094F85C103F208840C0
:102D1000A86084F8358084F83490216D1FE0E16B61
:102D200009B120468847606D00282BD0606DC00730
:102D300014D0052084F835002068016821F00101D5
:102D400001600098401C0090B84203D820680068D9
:102D5000C007F6D184F8358084F83490E16C0029FE
:102D600010D001B02046BDE8F04308470168C9050E
:102D7000D5D4016821F01001016084F8358084F811
:102D80003490CCE7BDE8F8831C0000202DE9F04129
:102D9000044600F0D3F906465CB1022084F8350001
:102DA000002584F834502068016821F00101016099
:102DB0000DE00120BDE8F08100F0C0F9801B05287E
:102DC00005D920206065032084F83500F2E72068EB
:102DD0000068C007F0D12268116820480140D4E99A
:102DE00001031843D4E90336334318436369184396
:102DF000A3691843E3691843236A18430843616AC7
:102E0000042903D1D4E90B13194308431060206847
:102E10004069666A20F0070130460E430127042806
:102E20000CD1A06A0643E06A40B12046FFF70AF9D8
:102E300020B14020606584F83570BAE720684661AB
:102E40002046FFF7EBF894F85C203F219140816029
:102E5000656584F835700020ACE700003F8010F015
:102E60002DE9F0410446866D90F8340000250128D4
:102E70000DD0012084F8340094F835700020012F23
:102E800007D084F8340002252846BDE8F0810220EE
:102E9000FBE7022784F8357060652046FFF7FCF8F1
:102EA00094F85C103F208840B0602068016841F0D1
:102EB00016010160206C20B12068016841F0080112
:102EC00001602068016841F001010160DCE7000059
:102ED00070B5044600F032F90546601C02D0044883
:102EE0000078044400F02AF9401BA042FAD370BDD8
:102EF000100000202DE9F84FDFF8F8A1002201248E
:102F000003254FF00F090AF1040BAAF1040E00BFCC
:102F10000B6804FA02F63340B34270D10F7907F020
:102F20000307012F01D0022F16D187684FEA42080C
:102F300005FA08FC27EA0C07D1F80CC00CFA08FCCB
:102F40004CEA070CC0F808C04768B7430E79C6F3CF
:102F5000001696403E4346600E79F643B6070AD007
:102F6000C7684FEA420C05FA0CF6B7438E6806FABA
:102F70000CF63E43C6600E7906F00306022E10D111
:102F8000D60800EB8608D8F8206057074FEAD76CC0
:102F900009FA0CF7BE430F6907FA0CF73743C8F874
:102FA000207006684FEA420C05FA0CF7BE430F7911
:102FB00007F0030707FA0CF7374307604E6816F46B
:102FC000403F1CD04C4E376847F480473760366826
:102FD00022F0030706F480460096484E07EB060CE5
:102FE000DCF8086897073F0F09FA07F826EA080691
:102FF000DFF80C81404503D14FF0000841E072E05A
:10300000DFF80081404502D14FF0010839E0DFF8D8
:10301000F880404502D14FF0020832E0DFF8EC8042
:10302000404502D14FF003082BE0DFF8E480404533
:1030300002D14FF0040824E0DFF8D880404502D1E7
:103040004FF005081DE0DFF8D080404502D14FF079
:10305000060816E0DFF8C480404502D14FF00708AB
:103060000FE0DFF8BC80404502D14FF0080808E0CF
:10307000DFF8B080404502D14FF0090801E04FF081
:103080000A0808FA07F848EA0608CCF80888DAF8C7
:1030900000605746D1F804C09E435FEACC2C00D5AF
:1030A0001E433E60DBF800605F46D1F804C09E43DB
:1030B0005FEA8C2C00D51E433E60DEF80060774648
:1030C000D1F804C09E435FEA8C3C00D51E433E60AD
:1030D000084F083F3E68D1F804C09E435FEACC3CED
:1030E00000D51E433E60521C102AFFF411AFBDE80C
:1030F000F88F0000083C0140443802400030014095
:10310000000002400004024000080240000C02409F
:10311000001002400014024000180240001C02404F
:1031200000200240002402400069084000D0012035
:1031300070470AB1816170470904FBE70148806864
:10314000704700001000002090F83D20202A01D098
:1031500002207047242280F83D200268136823F083
:10316000010313600268536A23F01003536202687C
:10317000536A0B43536201680A6842F001020A6015
:10318000202180F83D100020704790F83D20202A33
:1031900001D002207047242280F83D200268136885
:1031A00023F00103136003685A6A22F00F020A43F6
:1031B00091B2596201680A6842F001020A60202156
:1031C00080F83D100020704770B5040025D094F8B9
:1031D0003D00002520B984F83C50204600F0E6F977
:1031E000242084F83D002068016821F0010101607D
:1031F0002068016841F4004101602068016821F401
:103200000041016000F03CFB4D4A6168914201D8E9
:103210004C4900E04C49884201D2012070BD4B4925
:103220002368B0FBF1F15E6826F03F060E435E6056
:103230006368934206D94FF4967359434FF47A73F7
:10324000B1FBF3F12368491C1E6A26F03F063143A7
:1032500019626168914210D84900401EB0FBF1F23A
:10326000521CC2F30B02042A01D2042022E0B0FB5C
:10327000F1F0401CC0F30B001CE0A268F2B301EBBC
:10328000C10303EB0116431EB3FBF6F35B1C43F4CF
:1032900080431B0549D092B301EBC10202EB01113F
:1032A000401EB0FBF1F0401CC0F30B0040F4804026
:1032B00040F400402168CA694CF6FF739A431043FA
:1032C000C861D4E9071001432068026822F0C002F7
:1032D00011430160D4E9030101432068826848F288
:1032E000FF339A4311438160D4E905010843216803
:1032F000CA6822F0FF021043C86001E00EE016E049
:103300002068016841F0010101602564202084F8F3
:103310003D00256384F83E50002070BD01EB41065E
:10332000431EB3FBF6F35B1CB3E70120C2E701EBDE
:103330004101401EB0FBF1F0401CC0F30B00B7E7A9
:10334000A086010080841E0000093D0040420F005D
:103350002DE9F84F1F4690468A460446DDF828902E
:10336000FFF7ECFE054694F83D0020287FD1192395
:10337000012240492046009502F02CF8002876D121
:1033800094F83C00012872D0012084F83C002068A9
:103390000168C90703D1016841F00101016020689B
:1033A000016821F400610160212084F83D001020B3
:1033B00084F83E0000262664C4F824806785608D6A
:1033C00020852D48E0622B464A465146204601F0B2
:1033D00033FF90B9206841698069009036E02A4641
:1033E0004946204602F09CF850B1206C042804D1D4
:1033F0002068016841F4007101600120BDE8F88F88
:10340000606A216800780861606A401C6062618DB2
:10341000491E6185218D491E89B221852268536923
:10342000DB435B070BD451B100781061606A401C2C
:103430006062608D401E6085208D401E20852A467A
:103440004946204601F09AFF0028CED1208D002861
:10345000C5D154F83D0B016841F400710160202092
:1034600004F81E09E67766770020C7E7FFE7022029
:10347000C4E70000020010000000FFFF2DE9FF4F2D
:1034800083B09A46DDE9119793460446DDF8408003
:10349000FFF754FE054694F83D0020287FD11923FC
:1034A000012240492046009501F094FF002876D182
:1034B00094F83C00012872D0012084F83C00206878
:1034C0000168C90703D1016841F00101016020686A
:1034D000016821F400610160212084F83D00402052
:1034E00084F83E0000262664C4F82480A4F82A90BC
:1034F000608D20852C48E062CDE9007553465A4620
:103500002046049901F0E6FE70B930E02A463946BB
:10351000204602F005F858B1206C042804D1206838
:10352000016841F400710160012007B0BDE8F08F2F
:10353000606A216800780861606A401C6062218DC1
:10354000491E89B22185628D521E628522685369A7
:10355000DB435B070BD469B100781061606A401CE3
:103560006062208D401E2085608D401E6085208D0C
:103570000028CBD12A463946204601F0FFFE00281C
:10358000CAD154F83D0B016841F40071016020205C
:1035900004F81E09E67766770020C6E7FFE70220F9
:1035A000C3E70000020010000000FFFF10B586B066
:1035B000044614216846FCF761FE144920688842DD
:1035C00021D113480021026842F002020260006823
:1035D00000F0020005904FF4407000901220CDE9F9
:1035E0000101032003900420049069460948FFF775
:1035F00081FC07481030016841F400110160006847
:1036000000F40010059006B010BD0000005400400A
:1036100030380240000402400248816802781144B8
:1036200081607047100000200B4810B5016841F41C
:1036300000710160016841F480610160016841F43A
:1036400080710160032000F06FF8002000F006F8A0
:1036500000F024F8002010BD003C024070B50D4D74
:1036600004464FF47A712878B1FBF0F00A490968F2
:10367000B1FBF0F001F084F848B9102C07D2002219
:103680002146501E00F030F800206C6070BD012013
:1036900070BD0000100000201C0000200A4808B582
:1036A000016841F480410160006800F480400090AE
:1036B0000548001F016841F080510160006800F07A
:1036C0008050009008BD000044380240002809DB0B
:1036D00000F01F02012191404009800000F1E0202C
:1036E000C0F8001170470000F0B40E4B1B680C4688
:1036F000C3F30223C3F10705042D00D90425191DC6
:10370000072901D2002300E0DB1E012606FA05F19D
:10371000491E214099409E40761E16403143F0BC20
:1037200003F027BC0CED00E0064900F00702086832
:103730004FF6FF03184040EA0220034A1043086096
:10374000704700000CED00E00000FA052DE9F0479D
:103750000E46050065D0DFF81481D8F80000F7B2F6
:1037600000F00F00B04207D288F80070D8F80000CF
:1037700000F00F00B04254D128683D4C810712D5AB
:10378000400703D5206840F4E05020602878000707
:1037900003D5206840F4604020602068A96820F0CC
:1037A000F000084320602878C0072DD030496868B1
:1037B0000839012812D0022813D0032811D0096833
:1037C000890700292DDA216821F0030101432160D6
:1037D000FFF7B4FC814641F2883A0EE0096889039C
:1037E000EFE709688901ECE7FFF7A8FCA0EB090106
:1037F000514502D90320BDE8F0872068696800F0D0
:103800000C00B0EB810FEFD1D8F80010404601F06A
:103810000F01B14207D90770006800F00F00B042F5
:1038200001D00120E7E72878400705D52068E9683E
:1038300020F4E050084320602878000706D520686F
:10384000296920F4604040EAC100206000F038F8A7
:103850002168084AC1F30311515CC8400649086059
:1038600006480068FFF7FAFE0020C4E7003C02406B
:103870000838024070C003081C000020140000201B
:103880000448054900680968044AC1F38221515C73
:10389000C84070471C0000200838024080C0030860
:1038A0000448054900680968044AC1F34231515C83
:1038B000C84070471C0000200838024080C0030840
:1038C000154810B5006810F00C02144813D01449C4
:1038D000042A0FD0082A0ED10F4C241F2268236817
:1038E00002F03F025B0207D52068C0F38810A0FBFE
:1038F000010106E0084610BD2168C1F38811A1FB53
:1039000000010023FCF770FC2168C1F30141491C50
:103910004900B0FBF1F010BD083802400024F4006B
:1039200040787D012DE9F84F04006ED02078DFF853
:103930004C93C007A9F104054AD009F104000168BD
:10394000C1F38101012908D00068C0F38100022879
:103950000AD1D9F80000400206D52868800337D57F
:1039600060680028E1D033E06068B0F5803F10D097
:10397000B0F5A02F286810D020F480302860286887
:1039800020F4802028606068A8B1FFF7D7FB0646C6
:103990000DE0286840F48030F4E740F4802028608F
:1039A000F7E700BFFFF7CAFB801B642873D82868BD
:1039B0008003F7D50CE0FFF7C1FB064605E000BF2A
:1039C000FFF7BCFB801B6428F0D828688003F7D47D
:1039D0002078DFF8AC8280074FF0000A3ED5A74878
:1039E000001D016811F00C0F08D00068C0F38100C1
:1039F00002280BD1D9F80000400207D428688007BC
:103A000016D5E068012800D112E033E1E068B8B1D2
:103A10000120C8F80000FFF791FB064605E000BF53
:103A2000FFF78CFB801B0228C0D828688007F7D5D9
:103A30002868216920F0F80040EAC10028600DE004
:103A4000C8F800A0FFF77AFB064604E0FFF776FB14
:103A5000801B02281FD828688007F7D42078000729
:103A600022D5864F87486169703771B101210160A5
:103A7000FFF764FB064604E0FFF760FB801B0228AB
:103A800009D838688007F7D50EE0C0F800A0FFF726
:103A900055FB064605E082E0FFF750FB801B02283D
:103AA0007DD838688007F7D42078400768D5DFF8DC
:103AB000CCB100270BF13C0BDBF80000C0000BD4AD
:103AC000DBF8001041F08051CBF80010DBF800006B
:103AD000012700F0805000906B4E3068C00510D474
:103AE000306840F480703060FFF728FB009005E0FC
:103AF000FFF724FB0099401A022850D83068C0050F
:103B0000F6D55E4EA0686C3601280FD005283068C7
:103B100010D020F001003060306820F004003060E8
:103B2000A068B8B1FFF70AFB00900FE0306840F0E2
:103B30000100F4E740F004003060F7E7FFF7FEFA19
:103B40000099411A41F28830814266D83068800776
:103B5000F4D50EE0FFF7F2FA009007E0FFF7EEFA77
:103B60000099411A41F28830814256D83068800766
:103B7000F4D42FB1DBF8001021F08051CBF8001005
:103B8000A069C8B33D49091D0968C1F38101022933
:103B90004AD00228504607D0C8F8600000E03CE058
:103BA000FFF7CCFA04463BE04746C8F86000FFF751
:103BB000C5FA064605E000BFFFF7C0FA801B0228E1
:103BC0002BD828688001F7D4D4E907010843A16AFB
:103BD0002E4A490802EB0141626A41EA8211084318
:103BE00094F82C1040EA0161C9F8001001203866F1
:103BF000FFF7A4FA044606E03EE000BFFFF79EFA96
:103C0000001B022809D828688001F7D534E000BFDE
:103C1000FFF794FA001B022802D90320BDE8F88FB1
:103C200028688001F4D427E00128F7D0D9F80000F3
:103C3000E26900F4800191421CD1226A00F03F0148
:103C4000914217D147F6C071626A0140B1EB821F01
:103C500010D1A26A4FF0FF3300F4403103EB52025F
:103C6000B1EB024F06D194F82C1000F07060B0EB6D
:103C7000016F01D00120D1E70020CFE704380240D6
:103C800000004742800E4742007000400000FFFFE6
:103C90002DE9FE430446002603200D4684F8340037
:103CA000606C03285ED0B5F5805F5BD04FF4006791
:103CB00000204FF08068BD421FD1814600900190E6
:103CC0000021206802F035F8800113D469462046AF
:103CD00002F06CFB07000DD10198400334D5B4F815
:103CE00050000104206802F055F8070002D10221BB
:103CF000206823E0A06B384328E01DB1A06B40F0A2
:103D0000006023E08146009001900021206802F0CD
:103D100010F88001EED46946204602F047FB070008
:103D2000E8D10198C0030FD5B4F850000104206811
:103D300002F030F80700DDD10021206802F077F8AA
:103D40000700D7D14F46D5E74746D3E7A063A06B1E
:103D5000144F4FF0010848B12068876384F834801D
:103D600001260EE0A06B40F08050EFE7211DD4E962
:103D7000050C0EC9CDE90050CDF808C0206801F04F
:103D8000DBFF4FF40071206802F038F828B1216899
:103D90008F63A16B0143A163012684F83480304610
:103DA000BDE8FE83FF054000F0B5426E920F0A7039
:103DB000426EC2F383624A70426EC2F301628A703D
:103DC000426E120CCA70B0F86420120A0A7190F8A0
:103DD00064204A71826E120DCA80826EC2F3034261
:103DE0000A72B0F86820C2F3C0324A72B0F8682094
:103DF000C2F380328A72B0F86820C2F34032CA72CD
:103E0000B0F86820C2F300320A7300264E73426C89
:103E10004FF40075012462B1012A3AD00268474983
:103E20009163816B41F08051816380F834400120BF
:103E3000F0BDB0F86820C36E9205120D42EA93728D
:103E40000A61C26EC2F3C2620A75C26EC2F3026236
:103E50004A75C26EC2F342528A75C26EC2F3824282
:103E6000CA75C26EC2F3C2320A760A69521C426532
:103E70000B7E03F007039B1C9A4042650B7A03F00C
:103E80000F0704FA07F383655B0A5A43C0E9172555
:103E90000EE090F86820C36E9206920A42EA13423E
:103EA0000A610A69521C92024265C0E9165205660F
:103EB00030F86C2FC2F3803201F8192F0288C2F358
:103EC000C6124A70027802F07F028A704268D20FEE
:103ED000CA704268C2F341720A714268C2F38262D8
:103EE0004A714268C2F383528A714268C2F34052F7
:103EF000CA710E724268C2F300424A728288C2F3EB
:103F0000C0328A728288C2F38032CA728288C2F357
:103F100040320A738288C2F300324A738288C2F345
:103F200081228A738288C2F30122CA730079C0F3A6
:103F3000460008744C740020F0BD0000FF054000EE
:103F4000426C0A60826C4A60C26C8A60026DCA6010
:103F5000426D0A61826D4A61C26D8A61006EC861FC
:103F60000020704770B50446B0F8500000250104E9
:103F7000206802F044F818B1A16B0143A16304E08A
:103F80000021206801F0D5FE0546C5F3432070BD31
:103F900070B504000ED094F83400002518B92577C8
:103FA000204600F04FF8032084F83400204600F04B
:103FB0000BF808B1012070BDA5632563012084F8CA
:103FC0003400002070BD0000FEB5002504467620B8
:103FD0000095CDE9015029460B460A46206801F0BC
:103FE000ABFE48BB154E46F8A05F206801F0B6FE58
:103FF000012535600220FEF76BFF204602F0BEFA75
:1040000030B100BF84F83450A16B0143A16313E0C9
:10401000204602F03BFA0028F4D14FF400712068EA
:1040200001F0ECFE002808D0226805499163A16BDD
:104030000143A16384F834500120FEBD0080254275
:10404000FF054000F0B587B0044614216846FCF730
:1040500015F91D492068884233D11C4800240168A5
:1040600041F400610160006800F4006005901748A9
:104070001438016841F004010160016801F0040195
:104080000591016841F0080101600068022500F017
:10409000080005904FF4F850CDE9000502AA032668
:1040A0000C2782E8D00069460948FEF723FF042068
:1040B000CDE9000502AA694682E8D0000548FEF76E
:1040C00019FF07B0F0BD0000002C01404438024049
:1040D00000080240000C02402DE9F04F87B09B46DB
:1040E00016460D460446FFF729F800903DB194F8B6
:1040F0003400012807D0A06B40F000500DE0A06B09
:1041000040F0006009E00020A063E26D06EB0B01C7
:10411000914204D9A06B40F00070A0638AE00321B3
:1041200084F834102168C862616C012900D07602DD
:104130004FF0FF3101914FEA4B2102914FF00108FE
:1041400003AA902102278146CDF8188082E88202D6
:1041500001A9206801F0D7FDBBF1010F05D9276344
:104160003146206801F0BCFE05E0C4F830803146DD
:10417000206801F0CEFEDFF83CA130B12268C2F821
:1041800038A0A16B0143A16350E0029E1FE0406B89
:10419000000413D596B10027206801F0E3FD05F86F
:1041A000010B010A05F8011B010C05F8021B000EAA
:1041B000361F7F1C05F8010C082FEDD3FEF7BEFF5C
:1041C00001460098091A1098814220D2F8B120685F
:1041D000426B40F22A310A42D9D0416BC90509D558
:1041E000BBF1010F06D9616C032903D001F038FF40
:1041F0000028C3D12068416B090702D4416B8905AF
:104200001AD5C0F838A0A06B40F0080050E0216833
:10421000C1F838A0A06B40F00040A06384F834805F
:10422000C4F83090032007B0BDE8F08F84F83480E4
:10423000C4F830900120F6E7416B890705D5C0F836
:1042400038A0A06B40F0020032E0416B89061BD51C
:10425000C0F838A0A06B40F0200029E001F082FDFA
:1042600005F8010B010A05F8011B010C05F8021BFA
:10427000000E05F8010C361FFEF760FF0099411A89
:10428000109881420ED268B12068416B890201D535
:10429000002EE3D1216840F23A50886384F83480DC
:1042A0000020C0E72168C1F838A0A06B40F00040B2
:1042B000A063BBE7FF0540002DE9F04F8DB09B46A2
:1042C00016460D460446FEF739FF0A903DB194F8B4
:1042D0003400012807D0A06B40F000500DE0A06B27
:1042E00040F0006009E00020A063E26D06EB0B01E6
:1042F000914204D9A06B40F00070A0637AE00321E2
:1043000084F834102168C862616C012900D07602FB
:104310004FF0FF3103914FEA4B2104919021CDE9F9
:1043200005104FF00109CDE90709824603A920686D
:1043300001F0E9FCBBF1010F06D9202020633146D2
:10434000206801F0A7FE05E01020206331462068B8
:1043500001F0B9FE5FEA000806D021684148886391
:10436000A06B40EA080074E0049E27E0406B400424
:104370001CD5DEB15FF0000715F8010B009015F8B1
:10438000011B361F40EA0120009015F8021B40EA8D
:104390000140009015F8011C40EA01600090694658
:1043A000206801F0F2FC7F1C082FE5D3FEF7C6FE63
:1043B0000A99411A1698814220D2F8B12068416BBF
:1043C00040F21A321142D1D0416BC90523D5BBF15D
:1043D000010F20D9616C03291DD001F041FED0B13D
:1043E000226820499163A16B0143A16384F8349052
:1043F000C4F830A001200DB0BDE8F08F2168194845
:104400008863A06B40EA0800A06384F83490C4F885
:1044100030A00320EFE72068416B090702D4416B0D
:10442000890505D50F498163A06B40F0080010E0B5
:10443000416B890705D50B498163A06B40F00200F1
:1044400007E0416BC90606D506498163A06B40F0C1
:104450001000A063CAE740F23A51816384F83490B7
:104460000020C8E7FF05400070B5040009D0606A6D
:10447000002540B125616561A56294F8510040B105
:104480000CE0012070BD6068B0F5827FF4D0E5617A
:10449000F2E784F85050204600F044F8022084F8F7
:1044A00051002068016821F040010160A088218945
:1044B00000F4827001F404410843A18901F4006111
:1044C0000843217C01F002010843217D01F0010134
:1044D0000843218B01F400710843217F01F038016A
:1044E000084394F8201001F080010843218D01F465
:1044F0000051084321680860A069042101EA1040C6
:1045000094F8241001F010010843216848602068E5
:10451000C16921F40061C1616565012084F8510021
:10452000002070BD10B586B0044614216846FBF724
:10453000A5FE14492068884221D113480021026851
:1045400042F480420260006800F4804005900E480A
:104550001038026842F002020260006800F00200B7
:1045600005904FF4604000900220CDE90101032046
:1045700003900520049069460448FEF7BBFC06B092
:1045800010BD0000003800404038024000040240E6
:104590002DE9FF4F81B01D46934604464FF00109B7
:1045A0000E9EFEF7CBFD074694F851006168012886
:1045B00006D0B1F5827F3CD1A168C9BB042838D1AF
:1045C0000298002871D0BBF1000FFBD0002DF9D06C
:1045D00094F8500001282CD04FF0010A84F850A024
:1045E00094F85100042802D0052084F851004FF0BF
:1045F0000008C4F85480C4F838B0E587A58702994C
:104600002163E586A586C4F84080C4F8448020680C
:104610000168490603D4016841F040010160E06887
:10462000B0F5006F606808D0F0B3012D49D081E08B
:10463000FFE7022005B0BDE8F08F08B1012D39D1A8
:10464000206B21680088C860206B801C2063E08E8E
:10465000401EE0862EE02068816889070FD5E18E34
:1046600069B1B9F1010F0AD1216B0988C160206BD2
:10467000801C2063E08E401EE0864FF00009206819
:104680008168C9070CD0E18F51B1C068A16B088067
:10469000A06B801CA063E08F401EE0874FF00109F3
:1046A000FEF74CFDC01B01E00BE067E0B04201D318
:1046B000701C50D1E08E0028CDD1E08F0028CAD1E7
:1046C0003EE0206B216800780873206B401C20635B
:1046D000E08E401EE0862DE02068816889070FD5B6
:1046E000E18E69B1B9F1010F0AD1216B097801732B
:1046F000206B401C2063E08E401EE0864FF00009D6
:1047000020688168C9070CD0E18F51B1C068A16BE6
:104710000870A06B401CA063E08F401EE0874FF044
:104720000109FEF70BFDC01BB04202D3701C01D083
:1047300011E086B1E08E0028CED1E08F0028CBD1E9
:104740003A463146204601F0D9FF50B1202060653D
:1047500084F8508012E084F851A084F8508003203F
:1047600068E7A06818B92068C1688068009084F87C
:1047700051A084F85080606D0028F1D0012059E7E5
:1047800010B5401EB0F1807F01D3012010BD4FF065
:10479000E02460610F21601702F0EBFB0020A061B4
:1047A00007202061002010BD7047704770B590F859
:1047B0003C20012A32D0012480F83C40022280F8BB
:1047C0003D2003685A689D6822F070060A683243EB
:1047D0005A60134B02689A4214D0B2F1804F11D044
:1047E000104B9A420ED0104B9A420BD00F4B9A426C
:1047F00008D00F4B9A4205D00E4B9A4202D00E4B76
:104800009A4204D1496825F080031943916080F8E9
:104810003D40002180F83C10084670BD022070BD6C
:10482000000001400004004000080040000C00406F
:1048300000040140004001400018004010B5040091
:1048400003D094F83D0010B107E0012010BD002016
:1048500084F83C00204600F01FF8022084F83D0058
:10486000211D206802F03AF8012084F8460084F8FF
:104870003E0084F83F0084F8400084F8410084F84A
:10488000420084F8430084F8440084F8450084F82A
:104890003D00002010BD000008B5174A0168174808
:1048A000914207D1016841F002010160006800F007
:1048B000020009E0124A914208D1016841F010015A
:1048C0000160006800F01000009008BD0D4A9142A0
:1048D000FBD1016841F4807101600068002200F49E
:1048E0008070009011462D20FEF7FEFEBDE80840C6
:1048F0002D20FEF7EBBE00000004004040380240CF
:10490000001000400020004090F83D10012901D027
:1049100001207047022180F83D100068114988424B
:1049200014D0B0F1804F11D00F4988420ED00F49FA
:1049300088420BD00E49884208D00E49884205D0E3
:104940000D49884202D00D49884204D1816801F0A6
:104950000701062903D0016841F001010160002030
:1049600070470000000001400004004000080040C3
:10497000000C0040000401400040014000180040CD
:1049800090F83D10012901D001207047022180F8E4
:104990003D100168CA6842F00102CA60006811490E
:1049A000884214D0B0F1804F11D00F4988420ED008
:1049B0000E4988420BD00E49884208D00D498842E2
:1049C00005D00D49884202D00C49884204D1816843
:1049D00001F00701062903D0016841F001010160DF
:1049E0000020704700000140000400400008004023
:1049F000000C00400004014000400140001800404D
:104A000001680A6A41F211131A4207D10A6A9B101F
:104A10001A4203D10A6822F001020A60012180F8DB
:104A20003D100020704770B5044690F83C0000250A
:104A3000012817D0012684F83C60022084F83D004C
:104A40002068826822F0770222F47F428260086840
:104A5000502838D00DDC20284FD005DC90B310282A
:104A600011D14AE0022070BD302846D040280AD13A
:104A70003BE060282FD070280DD0B0F5805F03D0C8
:104A8000B0F5005F12D0012584F83D60002084F865
:104A90003C00284670BDCB68D1E90121206801F0B7
:104AA00089FF2068816841F0770109E0CB68D1E98E
:104AB0000121206801F07EFF2068816841F4804177
:104AC0008160E1E719E0CA684968206801F084FF65
:104AD0005021206806E0CA684968206801F08DFF0F
:104AE0006021206801F070FFCEE7CA68496820683D
:104AF00001F072FF40212068F4E722680146104669
:104B0000F0E790F83C20012A0CD0012200F83C2F5D
:104B10000223437050F83C3C5961427000210170FF
:104B2000084670470220704770472DE9F04104465F
:104B30000068C66805694FF00007A90713D5B107DB
:104B400011D5F91E01610120207720688069800756
:104B5000204602D0FFF7E8FF04E000F07EF8204690
:104B600000F07CF82777680716D5700714D5216800
:104B70006FF004000861022020772068806910F43B
:104B8000407F204602D0FFF7CFFF04E000F065F839
:104B9000204600F063F82777280715D5300713D58E
:104BA00021686FF008000861042020772068C06940
:104BB0008007204602D0FFF7B7FF04E000F04DF871
:104BC000204600F04BF82777E80616D5F00614D5F6
:104BD00021686FF010000861082020772068C06904
:104BE00010F4407F204602D0FFF79EFF04E000F063
:104BF00034F8204600F032F82777E80708D0F007AD
:104C000006D021686FF001000861204600F028F806
:104C1000280608D5300606D521686FF080000861A7
:104C20002046FFF7C1FD680608D5700606D5216845
:104C30006FF040000861204600F01EF8A8060AD573
:104C4000B00608D521686FF0200008612046BDE855
:104C5000F041FFF7AABDBDE8F08170477047000042
:104C60000349884203D10348006804F057BF7047E6
:104C7000D804002018000020704738B5044690F88A
:104C80004200202801D0022038BD61B15AB1012074
:104C9000206300206063204602F05CF80028F3D116
:104CA000216B012901D0012038BD21680A684968BB
:104CB000009121680C3151E8002F42F0100241E8C8
:104CC0000023002BF5D138BD10B50C460D4A016804
:104CD000914216D100F01EF80B49224601F5807072
:104CE0000AF0ADFE80210848FBF7C8FA8022064989
:104CF0000648FFF7C2FF06480068016821F0080176
:104D0000016010BD00100140340F0020200500207C
:104D10006805002010B504460068406994F8411009
:104D2000C0F3C010212911D180B12068143050E89F
:104D3000001F21F0800140E80012002AF5D1A06B8D
:104D400008B1FDF7F8FE204601F00FFF206840692A
:104D500094F84210C0F38010222911D180B120684C
:104D6000143050E8001F21F0400140E80012002AF2
:104D7000F5D1E06B08B1FDF7DEFE204601F0CEFE76
:104D8000002010BD70470000F8B5016804460868AF
:104D9000CA684B6910F00F0F4FF0000559D003F0AF
:104DA000010602F49077374365D0C10705D0D105DD
:104DB00003D5616C41F001016164410705D5D90754
:104DC00003D0616C41F002016164810705D5D90708
:104DD00003D0616C41F004016164010707D502F062
:104DE0002001314303D0616C41F008016164616CC2
:104DF00000293AD0800604D5900602D5204601F05D
:104E0000C2FE20684069616CC0F38010090700D4BD
:104E100060B3204601F082FE20684069400621D53B
:104E20002068143050E8001F21F0400140E80012D3
:104E3000002AF5D1E06BA8B16E490165E06BFDF782
:104E4000C3FE002811D0E06B016D01B0BDE8F04059
:104E5000084783060FD593060DD52046BDE8F840D8
:104E600001F091BE2046FFF78DFFF8BD2046FFF709
:104E700089FF6564F8BD266B2023012E7DD1C6060F
:104E80007BD5D60679D508684868009048694FF008
:104E90000206400641D5E16B086840680004000C3A
:104EA000E8D0A28D8242E5D9E085C869B0F5807F5F
:104EB0002DD020680C3050E8001F21F4807140E8AC
:104EC0000012002AF5D12068143050E8001F21F0AC
:104ED000010140E80012002AF5D12068143050E8A2
:104EE000001F21F0400140E80012002AF5D184F8AB
:104EF0004230256320680C3050E8001F21F010017B
:104F000040E80012002AF5D1E06BFDF714FE66635D
:104F1000A08DE18D401A81B22AE0A08DE18D401A6A
:104F200081B2E08D0028A5D00029A3D022680C32E0
:104F300052E8000F20F4907042E80007002FF5D1EE
:104F40002068143050E8002F22F0010240E80027CA
:104F5000002FF5D184F84230256320680C3050E8EA
:104F6000002F22F0100240E80023002BF5D16663E9
:104F70002046FFF7A9FEF8BDFFE705062BD515066D
:104F800029D594F841002128F5D1A068B0F5805FBB
:104F900001D12069B0B1206A411C216221680078EA
:104FA0004860E08C401E0004000CE084E3D12068DF
:104FB000C16821F08001C1602068C16841F04001F2
:104FC000C160D8E7206A0088C0F308004860206A02
:104FD000801C2062E5E74006CDD55006CBD5CA68D7
:104FE000204622F04002CA6084F8413000F00BF9FC
:104FF000C1E700001F6A000870B5040004D094F8EF
:105000004100002510B106E0012070BD84F8405039
:10501000204600F023F8242084F841002068C1686D
:1050200021F40051C160204601F00EFE20680169A4
:1050300021F4904101612068416921F02A01416118
:105040002068C16841F40051C1606564202084F883
:10505000410084F842006563002070BD70B586B0E1
:10506000064614216846FBF709F92349306888424F
:1050700040D122480025016841F01001016000681C
:1050800000F0100005901D481438016841F001013E
:1050900001600068694600F0010005904FF4C060AF
:1050A00000900220CDE90105032003900720049021
:1050B0001348FDF71FFF144C124820604FF00060AA
:1050C000C4E901054014C4E903506561A561E561C7
:1050D000256220466562FDF759FE08B1FCF7F1FF35
:1050E000F463002211462520A663FEF7FDFA252071
:1050F000FEF7ECFA06B070BD0010014044380240E3
:1051000000000240406402406805002090F84230F0
:10511000202B01D00220704721B11AB10023036374
:1051200001F060BE012070470068094988420DD136
:1051300008480168084841600188491C89B201801B
:105140000648012201440648FFF7E0BF704700000F
:1051500000100140180000207C000020B40E002048
:105160002005002070472DE9F843044690F84100DF
:10517000984616460D46202802D00220BDE8F88346
:1051800085B17EB100206064212084F84100FDF7E4
:10519000D5FFA6848146E684A0682027B0F5805F0D
:1051A00002D003E00120E9E7206910B12E46002576
:1051B0000EE000260CE08021204601F02EFEA8B96A
:1051C000C6B116F8010B21684860E08C401EE084EF
:1051D000E08C4B464FF00002CDF800800028EAD169
:1051E0004FF04001204601F018FE40B184F84170B4
:1051F0000320C3E735F8020BC0F30800E3E784F8A7
:1052000041700020BAE77047FEE701684A69D2435F
:1052100052050FD46FF480624A61002140F8301FBC
:10522000202242738173026942F004020261017319
:105230000120704700207047F8B50446C06A1E463A
:105240000D461746082807D0012805D010F5803FE5
:1052500002D0206B122804D12068016841F48071CB
:105260000160134600224FF001112046009600F025
:10527000B1F840B120680068C00502D54FF4007055
:1052800020640320F8BD2069B0F5804F0ED00620C1
:10529000216800EAD51040F0F000086133463A4634
:1052A0000B49204600F0DEF878B902E005F0FE0078
:1052B00000E0E8B221680861054933463A46891F93
:1052C000204600F0CFF80028DCD00120F8BD000017
:1052D000080001002DE9F843044600680D46DDE9A9
:1052E000089701689846164641F4807101604B4664
:1052F00000224FF001112046009700F06BF848B1F2
:1053000020680068C00502D54FF4007020640320B7
:10531000BDE8F883216805F0FE0008613B464A4677
:105320001549204600F09EF888B9206841698069D7
:1053300000903A464946204600F0F2F848B1206C09
:10534000042804D12068016841F400710160012043
:10535000DEE7F5B2B8F1010F09D02168300A086123
:105360003A464946204600F0DBF80028E7D120689D
:1053700005610020CCE700000200010070B5164670
:105380000D4604461EE02046FFF73FFF08B101200E
:1053900070BD681C16D0FDF7D1FE801BA84200D856
:1053A00085B920684069C04340070BD5002044F808
:1053B000300F20216173A073216941F02001216128
:1053C0002073E4E720684069C0434007DBD4002035
:1053D00070BD00002DE9F047984617460D4604467B
:1053E000C1F30746DDF820902AE000BFB8F1FF3F87
:1053F00026D0FDF7A3FEA0EB0901414502D8B8F184
:10540000000F1DD12068012E16D0806925EA00000A
:105410000004000C12D00020B84211D1002044F842
:10542000300F20216173A073216941F020012161B7
:1054300020730120BDE8F0874069E7E70120EBE732
:105440002068012E0AD0806925EA00000004000CC3
:1054500006D00020B842C9D00020EBE74069F3E74E
:105460000120F7E72DE9F047984616460D46044619
:105470004FF000094FF0200AC1F3074723E02068EE
:105480004069C043400515D42068016841F40071AB
:10549000016021686FF480604861C4F8309084F83E
:1054A0003DA084F83E90216C41F00401216484F811
:1054B0003C9021E0701C06D0FDF740FEA0EB0800F8
:1054C000B04203D816B1012F1FD021E02068012F70
:1054D00015D0806925EA00000004000C18D000BF38
:1054E00044F8309F84F80DA084F80E90216941F0B3
:1054F0002001216184F80C900120BDE8F08740690B
:1055000025EA00000004000CEAD12068406901E0AF
:105510002068806925EA00000004000CAFD1ECE7A8
:1055200070B516460D4604461EE02046FFF76DFE98
:1055300008B1012070BD681C16D0FDF7FFFD801B6F
:10554000A84200D885B920684069C04300060BD541
:10555000002044F8300F20216173A073216941F0CD
:10556000200121612073E4E720684069C043000600
:10557000DBD4002070BD00007FB500241A480094E1
:105580000194029417490394C0E9001401250561B0
:105590008460047680F820402907C1620226C66133
:1055A0004910C460816280F830404561FDF729F8F8
:1055B00008B1FCF786FD0A20CDE900056946029492
:1055C0000948FCF7C5FE08B1FCF77BFD0520CDE9D5
:1055D000000669460448FCF7BBFE002801D0FCF732
:1055E00070FD7FBD00200140FC0100201CB500249F
:1055F0000C4900940A48019408600846FDF79DF99B
:1056000008B1FCF75EFD0420CDE9000400226946E4
:105610000448FDF768F9002801D0FCF752FD1CBDD5
:1056200000740040A4020020154808B5016841F448
:1056300080010160016801F480010091016841F47A
:10564000001101600068002200F400100090114673
:105650001020FEF749F81020FEF738F80022114616
:105660003820FEF741F83820FEF730F800221146C6
:105670003A20FEF739F8BDE808403A20FEF726B890
:105680003038024010B503490348FCF71CFD0349BC
:10569000087010BD020000207414010801000020F1
:1056A0002DE9F04786B014216846FAF7E7FD3B483C
:1056B0000024016841F010010160016801F010014F
:1056C0000591016841F004010160016801F00401E5
:1056D0000591016841F080010160016801F08001DD
:1056E0000591016841F001010160016801F00101CB
:1056F0000591016841F002010160016801F00201B9
:105700000591016841F0080101600068DFF89080B0
:1057100000F008004FF480560590002231464046C4
:10572000FDF707FDDFF87CA04FF47C5701223946D6
:105730005046FDF7FEFC042000900220CDE9010454
:10574000032003900520DFF86090049069464846E6
:10575000FDF7D0FB0125CDE900546946404602948F
:10576000FDF7C8FB4AF68020CDE9000469464846AB
:105770000294FDF7BFFB0096CDE90154694640460F
:105780000394FDF7B7FBCDE90075CDE902546946F6
:105790005046FDF7AFFB06B0BDE8F0873038024059
:1057A00000040240000C024000100240144810B5F2
:1057B000124901601349416000214FF48042816029
:1057C000C0E9031241618161C1610162FDF7FCFC26
:1057D00008B1FCF776FC00210948FDF7B5FC08B1DB
:1057E000FCF76FFC00210648FDF7CFFC002803D032
:1057F000BDE81040FCF765BC10BD0000005400403F
:1058000018030020801A060006480549016000219F
:10581000416081600622C160C0E9051201617047E4
:10582000002C01406C030020104810B50E490160A7
:105830004FF482714160002102228160C0E90312AD
:10584000012242615202C0E9062101624162816285
:105850000A21C162FEF708FE002803D0BDE810400F
:10586000FCF72FBC10BD000000380040F003002002
:105870000C4810B50A490160B3214160002141F292
:105880008732C0E90212016180218161FEF7D6FFF3
:10589000002803D0BDE81040FCF713BC10BD000089
:1058A00000200040D804002010B586B0002417481E
:1058B00000940194029403940494134905940160A4
:1058C000B321C0E901146321C0E90314802181617F
:1058D000FEF7B4FF08B1FCF7F4FB4FF480500090E2
:1058E00069460A48FFF79FF808B1FCF7EAFB202059
:1058F000CDE9040404A90548FEF758FF002801D0AB
:10590000FCF7DFFB06B010BD000400404804002097
:105910001CB500240F4800940D4901940160B32187
:10592000C0E901146321C16080218161FEF786FF17
:1059300008B1FCF7C6FB2020CDE900046946054804
:10594000FEF734FF002801D0FCF7BBFB1CBD0000B4
:105950000010004090040020114810B50F4901606C
:105960004FF4E1214160002181600C22C160C0E957
:1059700004128161C161FFF73FFB08B1FCF7A1FB95
:10598000802208490648FFF778F905484830006842
:10599000016821F00801016010BD00000010014005
:1059A00020050020340F002010B530222DED028B91
:1059B0009AB0B0EE408A2A490DA8FAF746FC284969
:1059C000342230316846FAF740FCDDED180A9DEDCF
:1059D0000C0A60EE800AB4EEE08AF1EE10FA07DD00
:1059E000C8EE000AB0EE600A1AB0BDEC028B10BD22
:1059F0009FED1C1A00200DAC694600BF04EB80032C
:105A000001EB800293ED000AD2ED000A0B2860EE54
:105A1000200A06D293ED010AD2ED011A20EE210AE6
:105A200001E0B0EE410AB4EEE08AF1EE10FA04D8DB
:105A300001EB8000D0ED000A08E0B4EEC08AF1EE80
:105A400010FA06D201EB8000D0ED010A88EE200AA0
:105A5000CAE7401C0C28D1D3F2EE0A0AF6E7000090
:105A6000A4CE0308FFFF7F7F10EE100A2F49884263
:105A70005BDD10EE100A2E49884202DCF0EE000ACF
:105A800051E010EE100A2B49884202DCF0EE080AC1
:105A900049E010EE100A2849884202DCF1EE000AC3
:105AA00041E010EE100A2549884202DCF1EE040ABA
:105AB00039E010EE100A2249884202DCF1EE080AB1
:105AC00031E010EE100A1F49884202DCF1EE0C0AA8
:105AD00029E010EE100A1C49884202DCF2EE000AAE
