:020000040800F2
:10000000F81C002045030008ED230008BD2200086D
:10001000E9230008B5220008B1290008000000000B
:10002000000000000000000000000000B1270008F0
:10003000B922000800000000A52700088503000879
:100040005F0300085F0300085F0300085F03000808
:100050005F0300085F0300085F0300085F030008F8
:100060005F0300085F0300085F0300085F030008E8
:100070005F0300085F0300085F0300085F030008D8
:100080005F0300085F0300085F0300085F030008C8
:100090005F0300085F0300085F0300085F030008B8
:1000A0005F0300085F0300085F0300085F030008A8
:1000B0005F0300085F0300085F0300085F03000898
:1000C0005F0300085F0300085F0300085F03000888
:1000D0005F030008392900085F0300085F03000878
:1000E0005F0300085F0300085F0300085F03000868
:1000F0005F0300085F0300085F0300085F03000858
:100100005F030008A92700085F0300085F030008D9
:100110005F0300085F0300085F0300085F03000837
:100120005F0300085F0300085F0300085F03000827
:100130005F0300085F0300085F0300085F03000817
:100140005F0300085F0300085F0300085F03000807
:100150005F0300085F0300085F0300085F030008F7
:100160005F0300085F0300085F0300085F030008E7
:100170005F0300085F0300085F0300080000000041
:100180005F0300085F0300085F0300085F030008C7
:100190005F0300085F0300085F0300080000000021
:1001A0005F0300085F0300085F03000800F002F827
:1001B00000F0B8F80AA090E8000C82448344AAF149
:1001C0000107DA4501D100F0ADF8AFF2090EBAE847
:1001D0000F0013F0010F18BFFB1A43F0010318477B
:1001E00068C2000088C200000A444FF0000C10F8FA
:1001F000013B13F0070408BF10F8014B1D1108BFA5
:1002000010F8015B641E05D010F8016B641E01F844
:10021000016BF9D113F0080F1EBF10F8014BAD1C94
:100220000C1B09D16D1E58BF01F801CBFAD505E0B2
:1002300014F8016B01F8016B6D1EF9D59142D6D30C
:10024000704700000023002400250026103A28BF34
:1002500078C1FBD8520728BF30C148BF0B60704738
:100260006E2900F08B85702900F0C18166290BF0A2
:10027000738265290BF0708267290BF06D8261290A
:100280000BF06C8203681B0A28BF41F080016929CA
:1002900000F03281642900F02F81752900F02C8153
:1002A0006F2900F06286782900F08D81E92900F03D
:1002B000FD85E42900F0FA85F52900F0F785EF299E
:1002C00000F05F86F82900F08C810368DB0928BF05
:1002D00041F08001632901F06782732901F06C828B
:1002E000E32901F07782F32901F07C820020704736
:1002F0001FB50BF02CFA9DE8030000F0D7FB01F0CE
:10030000CBFA0400002000210BF094F9401C60603F
:10031000002000210BF078F9E06000F099FB1FBD90
:1003200010B510BD01F08AFA1146FFF7E1FF06F0A3
:100330004FFC01F067FB03B4FFF7F2FF03BC00F0D2
:1003400033FE00000948804709480047FEE7FEE702
:10035000FEE7FEE7FEE7FEE7FEE7FEE7FEE7FEE775
:1003600004480549054A064B70470000BD270008B0
:10037000AD010008F8140020F81C0020F818002037
:10038000F818002030B410B50348804730BCAE46A2
:1003900030BC024800470000D9710008B5270008AA
:1003A00000BF704770B5064600F064FB056806F1B3
:1003B0000B0020F00704B4429CBF002070BD2B4608
:1003C0006A68BAB11068A04210D304F108018842EB
:1003D0003CBF5068586007D35168101941601168DC
:1003E000091B016058601460101D70BD13465268EF
:1003F000002AE7D12146284600F044FB0028DED140
:1004000070BD70B50446051F00F034FB0068002C79
:1004100014BF446870BD002C18BFAC423CBF2046DE
:100420006468F8D301680A18AA4218BF456003D16E
:100430002A6805461144016028684119A1421CBF81
:100440006C6070BD6168696021680844286070BD97
:1004500010B54C1084EA530404D54042C1F10001A8
:1004600038BF491E1B4204D55242C3F1000338BFB6
:100470005B1E00F051FB14F0804F04D04042C1F1EC
:10048000000138BF491E14F0004F04D05242C3F19E
:10049000000338BF5B1E10BD7CB51D4616460C0020
:1004A000009001D02044401E074B7B442A466946F9
:1004B0000190304600F07BFC05461CB100206946E7
:1004C00000F088FC28467CBD310900000FB41CB543
:1004D000084B06AA7B4469460090059800F067FC2B
:1004E00004460020694600F075FC20461CBC5DF8FF
:1004F00014FB0000FD0800002DE9F0410646002431
:1005000010687529314616A510D000F0A3FB00280D
:1005100002DA404213A507E031688A0701D512A527
:1005200002E0490704D511A5012401E000F09BFB7E
:1005300000210A2206F1240709E0B0FBF2FCB0FB1F
:10054000F2F302FB1C00303078541846491C002896
:10055000F3D123462A463046BDE8F04100F0B5BB52
:10056000000000002D0000002B0000002000000013
:10057000F0B40D460188090502D5214C7C4402E007
:100580001F4C7C440E34002100F1240608E002F0E8
:100590000F071209E75D42EA03721B097754491CF1
:1005A00052EA0307F3D102780023120704D5702D15
:1005B00006D009B1022311342246F0BC00F085BBFD
:1005C00001231034F8E770B504460D462146106843
:1005D00000F049FB024629462046BDE87040002352
:1005E000C6E7D21D22F00703D3E90023C0E7036862
:1005F000126843F0200303600823C3610023B7E7B8
:1006000090BD00002DE9F05F894604464FF0000AD6
:10061000DFF874B1FB44C0F820A02046E1688847A9
:10062000002874D0252806D0D4E901219047206AFB
:10063000401C2062F1E700265F462046E1688847BB
:100640002028054607DB312D05D2781910F8200C3B
:1006500008B10643F1E7B00701D526F00406C4F857
:100660001CA00027C4F818A02A2D09D0284602F0A3
:10067000D3F938B304EB8708303DC8F8185019E0B7
:1006800059F8041B204604EB87029161E168884712
:10069000012F054618D1E069002820DA26F020064F
:1006A0001DE0D8F8180000EB800005EB4000303862
:1006B000C8F818002046E1688847054602F0ACF902
:1006C0000028EED1012F0AD02E2D08D12046E16856
:1006D00088477F1C0546022F46F02006C4DBA06930
:1006E000002803DA404246F00106A061F00701D07D
:1006F00026F010066C2D0BD0682D09D04C2D39D06A
:100700006A2D35D0742D35D07A2D33D016E038E0EF
:10071000E1682F4620468847B842054609D16C2F2C
:1007200026D04FF48060E16806432046884705469E
:1007300004E06C2F1AD04FF4807006430DB3A5F17E
:100740004100192802D8203546F400664A46294659
:10075000204626604E46FFF783FD80B101280BD06E
:10076000F61D26F0070000F1080956E74020E4E7EF
:100770008020D8E70020D6E706F104094DE7284697
:1007800052E7206ABDE8F09F20BD000040EA010367
:1007900010B59B070FD1042A0DD310C808C9121F2A
:1007A0009C42F8D020BA19BA884201D9012010BD64
:1007B0004FF0FF3010BD1AB1D30703D0521C07E031
:1007C000002010BD10F8013B11F8014B1B1B07D195
:1007D00010F8013B11F8014B1B1B01D1921EF1D106
:1007E000184610BD10B5431C02E010F8011B71B192
:1007F0008107FAD14FF0013202C88C1A8C4314EAF7
:10080000C211F9D0C01A0A0603D0C01E10BDC01A0A
:1008100010BD0A0401D0801E10BD0902FCD0401E8C
:1008200010BD40EA010370B59B072ED14FF0013691
:10083000042A2AD308C810C99D1B9D43121F15EA1C
:10084000C61517D0D8B2E1B2401A50EA056110D1EE
:1008500098B2A1B2401A50EA05410AD123F07F4074
:1008600024F07F41401A50EA052102D1180EA0EB76
:10087000146070BDA342DBD018BA21BA884201D9F6
:10088000012070BD4FF0FF3070BD0AB9002070BD6F
:1008900010F8013B11F8014B63B1A3420AD1521E7B
:1008A00008D010F8013B11F8014B1BB1A34201D154
:1008B000521EEDD1181B70BD032A40F2308010F09B
:1008C000030C00F0158011F8013BBCF1020F6244EB
:1008D00098BF11F801CB00F8013B38BF11F8013B7C
:1008E000A2F1040298BF00F801CB38BF00F8013B29
:1008F00011F0030300F02580083AC0F0088051F899
:10090000043B083A51F804CBA0E80810F5E7121DA3
:100910005CBF51F8043B40F8043BAFF30080D207C2
:1009200024BF11F8013B11F801CB48BF11F8012B8E
:1009300024BF00F8013B00F801CB48BF00F8012BB1
:10094000704710B5203AC0F00B80B1E81850203A3B
:10095000A0E81850B1E81850A0E81850BFF4F5AF5F
:100960005FEA027C24BFB1E81850A0E8185044BFE9
:1009700018C918C0BDE810405FEA827C24BF51F856
:10098000043B40F8043B08BF7047D20728BF31F84A
:10099000023B48BF11F8012B28BF20F8023B48BF9B
:1009A00000F8012B704702F0FF0343EA032242EAFA
:1009B000024200F002B84FF000020429C0F0128099
:1009C00010F0030C00F01B80CCF1040CBCF1020F02
:1009D00018BF00F8012BA8BF20F8022BA1EB0C01D7
:1009E00000F00DB85FEAC17C24BF00F8012B00F8CD
:1009F000012B48BF00F8012B70474FF0000200B5F3
:100A0000134694469646203922BFA0E80C50A0E831
:100A10000C50B1F12001BFF4F7AF090728BFA0E8DF
:100A20000C5048BF0CC05DF804EB890028BF40F8AB
:100A3000042B08BF704748BF20F8022B11F0804FED
:100A400018BF00F8012B70477047704770470000CF
:100A500070B5064C7C44064D7D4403E0206820447C
:100A60008047241DAC42F9D170BD00003CBB0000A2
:100A70003CBB000000487047A0140020704770473E
:100A80007047704738B504460A4600206946AFF300
:100A90000080002808BF38BD02460099204600F0BB
:100AA0008DFA012038BD012000F0C0BEF8B5AFF3CB
:100AB0000080054600200C46102000BF0646A819FD
:100AC000A0420DD9324669460020AFF300800700EE
:100AD00008BF00F0ABFE0098A04218BF0546C4193D
:100AE000FFF7C8FF05600746F01D20F00700461914
:100AF000284600F00AF8B44208BFF8BDA21B3146F0
:100B00003868BDE8F84000F059BA00210160C0E93A
:100B1000011070471020704753EA020C00F0698002
:100B20002DE9F04B4FF00006002B1FBFB3FA83F501
:100B300003FA05F424FA05F65E4012BF1643B2FA32
:100B400082F502FA05F4C5F120051EBF22FA05FC64
:100B500044EA0C04203556EA044C4FEA144418BF0A
:100B6000641C4FF000084FF00009904271EB030C39
:100B700039D3002919BFB1FA81F701FA07F6B0FAA3
:100B800080F700FA07F6C7F120071EBF20FA07FC1E
:100B900046EA0C062037B6FBF4FCA7EB0507103F2E
:100BA00007F01F0BCBF120060CFA0BFB2CFA06F614
:100BB00044BFB3460026202FA4BF5E464FF0000B73
:100BC0005BEA060C08BF4FF0010B19EB0B09ABFBFE
:100BD000027C48EB0608C01B06FB02CC0BFB03CCD7
:100BE00071EB0C01C1E70B46024641464846BDE8A1
:100BF000F08B13B54FF000004FF00001AFF3008011
:100C0000BDE81C40704770B5044685690068C106A0
:100C100001D5302600E02026C00707D070BDD4E9FA
:100C2000012130469047206A401C20626D1EF6D597
:100C300070BD70B5044685690078C00707D170BDE6
:100C4000D4E9012120209047206A401C20626D1EBB
:100C5000F6D570BD09684A0501D540B27047C9058F
:100C6000FCD500B2704709684A0501D5C0B270478B
:100C7000C905FCD580B2704770B50C460546012AFF
:100C800005D02878800600D5EA69002302E0012318
:100C900005E05B1C934202D2E05C0028F9D1A86910
:100CA000E618C01AA861286A184428622846FFF787
:100CB000AAFF04E0D5E9012114F8010B9047B442E2
:100CC000F8D32846FFF7B5FF70BD2DE9F0470D4674
:100CD00099469246044600F124080168880604D526
:100CE000E06921F01001216000E00120A84201DD4F
:100CF000471B00E00027A1697A1902EB0900081AD6
:100D0000A0612078C00602D42046FFF77CFF0026B1
:100D100008E0D4E901211AF806009047206A401C37
:100D2000761C20624E45F4DB2078C0060AD52046AA
:100D3000FFF769FF06E0D4E9012130209047206ADF
:100D4000401C2062381EA7F10107F4DC07E0D4E95B
:100D5000012118F805009047206A401C2062281ED7
:100D6000A5F10105F3DC2046FFF763FF20780006BC
:100D700002D50220BDE8F0870120FBE71168026878
:100D8000006A530501D508700AE0D30501D5088033
:100D900006E0130603D5C217C1E9000200E00860AF
:100DA0000120704701694A1C02610878704700B54C
:100DB0008FB0CDE901310021059105497944CDE994
:100DC000031011466846FFF71DFC0FB000BD000080
:100DD000E5FFFFFF0A6802F8010B0A607047D1E9DE
:100DE00000239A4202D2531C0B601070704700001F
:100DF0002DE9FF5F15468A460446DFF8AC80F844CB
:100E00000027D8E900103E46CDE9001010E03AF87E
:100E100016106A4602A800F0E9FC411C07D02178B0
:100E2000890603D5E269391891420DD80744761C2A
:100E30002078800602D5E069B84205DDAE42E6DBE7
:100E40003AF816000028E2D1A069C01BA061204634
:100E5000FFF7D9FED8E90010CDE90010002017E017
:100E60003AF818106A4602A800F0C0FCB0F1FF3F43
:100E700081460BD000250DF1080B05E0D4E90121D6
:100E80001BF8050090476D1C4D45F7D308F1010094
:100E9000B0428046E4DB206A384420622046FFF7F7
:100EA000C8FEBDE8FF9F00004AB500002DE9F041F3
:100EB0008046D21D22F007020025D2E90002F52962
:100EC00015A614D0011E72F1000106DA0023D0EB42
:100ED000030063EB020211A608E0D8F800108B07AC
:100EE00001D50FA602E0490701D50EA6012511463E
:100EF000002408F1240704E000F07AF830323A5573
:100F0000641C50EA0102F7D12B4632462146404686
:100F1000BDE8F041FFF7D9BE000000002D00000041
:100F20002B0000002000000030B4002100F1240458
:100F300008E002F00705D208303542EA4372DB08C8
:100F40006554491C52EA0305F3D10468002310A23A
:100F5000250707D5A40600D421B1C46901230DA239
:100F6000641EC46130BCFFF7B0BE10B50446214614
:100F70001068FFF778FE02462046BDE810400023C7
:100F8000D2E7D21D22F00701D1E90023CCE700000F
:100F9000000000003000000008B569468DF8000030
:100FA0000320ABBE08BD000001491820ABBEFEE720
:100FB000260002000048704798140020034640684D
:100FC0008C46002818BF88423CBF03464068F8D3CF
:100FD00018681844884207D00CF1030020F007007D
:100FE000001D411A521A0146081D0A60FFF709BA8E
:100FF00030B5B0F10A024FEA900E71F100034EEAEB
:10100000817EB0EB0E0061EB91014FEA101E4EEABB
:10101000017E10EB0E0041EB11114FEA102E4EEA4B
:10102000016E10EB0E0041EB11214FEA104E4EEA1B
:10103000014E10EB0E0041EB1141401841F100014F
:101040004FEAD00040EA41704FEAD10110EB800531
:101050004FEA810444EA907444EB01046D1944EBB7
:101060000404521BA3414FF0000348BF0A3200D5CD
:1010700030BD401C41F1000130BD70472DE9FF4FEC
:101080000C461E464FF0FF378BB0D2E90001DDF869
:1010900060800A908A46C1F30A5505B93D46002191
:1010A00008464FF00000BAF1000F00F4400005DAE6
:1010B00000EB80004FF4400101EA50004FEA9059E4
:1010C000B9F1010F00DDB9460A9850EA4A000ED086
:1010D00044F61050A5F2FF3545432F14B8F1000F28
:1010E0001ED07542291E1EDDC9F100021CE0B8F1B8
:1010F000010F4FF0000001D0302103E0F24305E082
:101100002154401CB042FBDB304600220021215418
:101110000B99C1F80880C1E900200FB0BDE8F08F3D
:10112000BD1B6D1CDEE74A4600DA694206A800F0E6
:10113000F7FB06AB93E8070003AB83E807005046D4
:101140000A9900F0EFFC8DE80700A0F500501F3869
:1011500000900398002D0ADD42F21F014A46084420
:10116000002303A90390684600F058FF09E0A0F5AA
:1011700000504A461F38002303A90390684600F038
:1011800062FF8DE807000004000C03D04FF0FF3031
:10119000410800E01046B8F1000F03D00022009291
:1011A00015461EE0751E05D4FFF722FF303262554A
:1011B0006D1EF9D5B3460122084302D000227F1CE0
:1011C00004E02078302801D100227F1E002A0997F0
:1011D00084D01DE0112D07DAFFF70AFF3032625587
:1011E0006D1C50EA0102F5D1084302D00098C8B145
:1011F0000EE00021681E05E0235C625C635422540B
:10120000401E491C8142F7DBAB46A81B401E0990DB
:10121000002004F80B000B98099AC0F80880C0E978
:10122000002B7AE711264FF0000857E72DE9F04F21
:1012300088460446D21D22F0070191B0D1E9000191
:10124000CDE90A0101F0B6FB02460B98C00F01D0B0
:101250002D2007E02068810701D52B2002E0202106
:1012600001EAC000032A099001D0072A05DB0346E2
:101270004146204600F014FB0BE12078800601D5A2
:10128000E06900E00620B8F1650F814606D0B8F1AC
:10129000660F18D0B8F1670F70D131E00020B9F1B6
:1012A000110F009001DB112301E009F101030AAAEB
:1012B00001A90CA8FFF7E2FEDDE90C70002609F198
:1012C0000105834647E001204B4600904FF0004760
:1012D0000AAA01A90CA8FFF7D1FEDDE90DB00C990F
:1012E0005D46002610B909F101000D18B9EB0500A3
:1012F00003D4C0F1FF3609F10105A5EB09002BE08D
:10130000B9F1010F01DA4FF001090020B9F1110F15
:101310000090484601DD112300E003460AAA01A916
:101320000CA8FFF7ABFEDDE90C704D4600268346A6
:10133000207800070AD4AB4500DA5D4601A8012DEC
:1013400004DD411911F8011C302907D04F4502DA9C
:1013500017F1040F04DA012082460FE06D1EEEE75C
:10136000002F02DCED1B3E4403E0781CA84200DDA8
:101370007D1CB81B00F1010A4FF0004720780007E0
:1013800003D4AA4501DB4FF0FF3A0021B7F1004F2B
:101390000DF143088DF8431024D002202B23002F99
:1013A00001DA7F422D230A21021EA0F1010000DC98
:1013B0005FB197FBF1FC97FBF1F201FB1C7C174638
:1013C0000CF1300C08F801CDEEE7A8F10100037034
:1013D0002188090501D5452100E06521A0F101081A
:1013E00000F8011C09980FA9A1EB0807FF1D00B127
:1013F0000120411901EBEA70A1693844081A401E26
:10140000A0612078C00602D42046FFF7FCFB0998B3
:1014100028B1D4E901219047206A401C206220783D
:10142000C00622D52046FFF7EEFB1EE0002E04DBAF
:10143000B34502DD01A8805D00E03020D4E9012140
:101440009047206A401C2062761CAAF101005FEAE6
:10145000000A0AD100F020FAC0680168405CD4E9B3
:1014600001219047206A401C2062281EA5F1010539
:10147000DCDC07E0D4E9012118F8010B9047206A71
:10148000401C2062381EA7F10107F3DC2046FFF75D
:10149000D0FB032011B041E62DE9F04F04460D4684
:1014A000D21D22F0070089B0D0E90097484639469E
:1014B00001F080FA0246F80F01D02D2307E02068E2
:1014C000810701D52B2302E0202101EAC0038DF81A
:1014D00020300BB1012000E00020032A824601D019
:1014E000072A04DB2946204600F0DAF93FE120789C
:1014F000800601D40D2500E0E569C7F30A560D2DDD
:1015000049DA00214FEA175B08464FF00000002F30
:1015100000F4400007DA00EB80004FF4400100EBDC
:10152000D07001EA60008115012901DD4FF0FF3123
:1015300000224FEA850CBCF1180F06D31346ACF11C
:1015400018004FF08052C24003E04FF4801323FA9A
:101550000CF30CF10C0CBCF1200F04D3ACF1200CFB
:1015600009FA0CF001E007FA0CF000294FF00048EE
:1015700001DD18B90FE00ED140450CD319EB02097B
:101580005F4121B9404502D19F4329EA0209BBEBE3
:10159000175F00D0761C2088000502D57B48784470
:1015A00002E07A487844193808AA302302F80A3051
:1015B000037C0AF10101002E0AF1020A53546A4623
:1015C00002DC4FF0300101E04FF031014FF0010833
:1015D0008DF8001002D0A6F2FF3603E059EA470169
:1015E00000D06B4E002D02DC2178090704D54FF0A6
:1015F00002082E218DF80110C44600210BE0C7F32C
:1016000003433F01C35C491C6D1E02F808300529E5
:1016100008F1010801DA002DF1DC00210CE000EBFB
:101620001973491C1B786D1E082902F808304FEA0F
:10163000091908F1010801DA002DF0DC21688B0698
:1016400002D516E0A8F10108E04505DD02EB08032C
:1016500013F8013C302BF5D0B8F1000F09DD02EB97
:10166000080313F8013C2E2B03D1090701D4A8F17C
:101670000108002D05DD3E2102F808106D1E08F15D
:101680000108407C002E02F8080008F1010804DA85
:101690002D20764202F8080002E02B2002F8080014
:1016A0000A214FF47A70864208F101080BDB96FBA1
:1016B000F0F3303302F8083096FBF0F308F101083C
:1016C00000FB136601E0642E0CDB642096FBF0F354
:1016D000303302F8083096FBF0F308F1010800FB04
:1016E000136601E00A2E06DB96FBF1F0303002F8BB
:1016F000080008F1010896FBF1F001FB10603030A2
:1017000002F80800A16908F1010808EB050202EBE4
:101710000A00081AA0612078C00602D42046FFF70C
:1017200072FA216A08AE01EB0A00206204E0D4E9F3
:10173000012116F8010B9047BAF1010AF7D220787F
:10174000C00602D52046FFF75EFA6E4609E016F89D
:10175000010B3E280FD0D4E901219047206A401C9C
:101760002062B8F10108F2D22046FFF762FA09B010
:101770000320BDE8F08F206A2844206203E0D4E90A
:101780000121302090476D1EEBD3F8E7C5AD000076
:1017900002FCFFFF10B5436913B1AFF3008001E015
:1017A000FFF76AFA012010BD127800F124010A70D7
:1017B00000224A700122EDE711684FF0FF32E9E79D
:1017C00010B5436913B1AFF3008001E0FFF710FBE0
:1017D000012010BD128800F1240182840022C284FD
:1017E0000122EDE711684FF0FF32E9E770B51646C8
:1017F0000C46054600F048F8036893F801010128FB
:1018000006D0FF2C0FD8185D68B101202C7070BD78
:10181000D3F807013246214603F207130344284652
:10182000BDE8704018474FF0FF3070BD10B500F0B4
:10183000F7F8BDE8104000F0EEB870477546FFF7C6
:10184000B9FBAE4605006946534620F007008546C1
:1018500018B020B5FEF784FDBDE820404FF000062B
:101860004FF000074FF000084FF0000B21F0070188
:10187000AC46ACE8C009ACE8C009ACE8C009ACE8CB
:10188000C0098D467047000010B500F005F8001D36
:1018900010BD00BFA19D000000487047B814002093
:1018A0002DE9F0411F46044603260168072A01F48A
:1018B000006004DB08B116A505E016A503E008B139
:1018C00015A500E015A521F010002060A069C01E3C
:1018D000A0610FB1401EA0612046FFF794F94FB1FF
:1018E000D4E9012138469047206A401C2062C01C80
:1018F000206206E0206AFAE7D4E9012115F8010B1D
:101900009047761EF8D22046FFF793F9BDE8F081A4
:101910004E414E006E616E00494E4600696E660093
:101920002DE9F047814616468AB0354878440DC8FF
:101930008DE80D0032487844801C03AC0DC884E863
:101940000D0041F69B300844372190FBF1F290FBEB
:10195000F1F5A5F1800501FB12041B3C02D56442A0
:10196000012000E00020DFF898A080460027FA441C
:10197000AAF1BE0A0EE0E0070AD03246684607EB3D
:10198000470101230AEB810100F05DFB8DE80700B0
:1019900064107F1C002CEED1194F7F44AE3F19E03C
:1019A000E80715D007EB04100DF1180A90E80E00B7
:1019B0008AE80E00C068F04201D1981908903246BA
:1019C000012306A903A800F03EFB03AB83E8070050
:1019D0006D10641C002DE3D14FF0010332466946BF
:1019E000B8F1000F03A802D000F018FB01E000F0EE
:1019F0002AFBC9E90001C9F808200AB0BDE8F08750
:101A0000C8AA000010B50446AFF300802046BDE828
:101A10001040FEF790BC002801D0FFF7C5BA704710
:101A200010B5012805D0002103A000F021F8012005
:101A300010BD09A1F8E7000053494752544D454DE8
:101A40003A204F7574206F662068656170206D655F
:101A50006D6F7279000000003A2048656170206D5A
:101A6000656D6F727920636F727275707465640052
:101A700070B505460C460A2000E06D1CFFF78CFA95
:101A800035B128780028F8D102E0641CFFF784FA09
:101A900014B120780028F8D1BDE870400A20FFF783
:101AA0007BBA00004FF0013C50F8042B51F8043B86
:101AB0009A4221D1A2EB0C03934313EACC1317D122
:101AC00050F8042B51F8043B9A4215D1A2EB0C03B9
:101AD000934313EACC130BD150F8042B51F8043B79
:101AE0009A4209D1A2EB0C03934313EACC13DBD047
:101AF0004FF00000704700BFD01A01BAB1FA81F16F
:101B000001F0180122FA01F0CB40C1F12001DBB253
:101B1000C0B2C01A2CFA01F3D11A914311EAC311D1
:101B2000E6D170475FEA400C08BF91F0000F4FEA22
:101B30008C234FEAC12243EA51514FEA1C5018BF8F
:101B400000F5F0404FEA300018BF41F000415FEA75
:101B50006C5C00F02980BCF1FF3F08BF40F0804082
:101B60007047130C06BF12044FF0100C4FF0000C1E
:101B7000130E04BF12020CF1080C130F04BF120164
:101B80000CF1040C930F04BF92000CF1020CD30F64
:101B900004BF52000CF1010C11464FF00002A0F1FD
:101BA0001F00A0EB0C00704711F0004F08BF7047FA
:101BB00031F000413FF4D5AF0B0C06BF09044FF0E4
:101BC000100C4FF0000C0B0E04BF09020CF1080CB6
:101BD0000B0F04BF09010CF1040C8B0F04BF89002B
:101BE0000CF1020CCB0F04BF49000CF1010CCCF13D
:101BF0002003A0EB0C0022FA03F302FA0CF241EAF4
:101C0000030100F10100704720F07F4C80EA0300DF
:101C100023F07F47ACEB070303F57C5300F0004053
:101C200003F1FF032DE980494FEA154B09B44FEA50
:101C3000144325EA0B4E24EA03480FF2042606EB70
:101C4000132749083E785FEA320203FB0667C7F5AF
:101C5000000707FB06F64FEA54374FEAD64606F16F
:101C6000020607FB066CCCF1005C4FEA1C472CEA2D
:101C7000074C07FB06F40CFB06F504EB15464FEA90
:101C8000961634BF00204FF000404FEAD13706FBD4
:101C900007FC4FEA1C4C0CFB0BF7D21B03FB0CF7A9
:101CA00061EB07010CFB0EF7B0EB074072EB17423C
:101CB0000CFB08F734BFA2EB0742B2EB074261EB23
:101CC00017414FEA0C444FEA910706FB07FC4FEA25
:101CD0001C4C0CFB0BF7B0EBC74072EB573203FB0D
:101CE0000CF734BFA2EBC742B2EBC74261EB5731EE
:101CF0000CFB0EF7B0EBC70072EB57720CFB08F74A
:101D000034BFA2EBC702B2EBC70261EB5771039F6E
:101D10004FEA816141EA921104EBCC044FEAD137DA
:101D20004FEA826206FB07FC42EA90124FEA8060AB
:101D30004FEA1C4C0CFB0BF7D21B03FB0CF761EBBF
:101D400007010CFB0EF7B0EB074072EB17420CFBE0
:101D500008F734BFA2EB0742B2EB074261EB174131
:101D60004FEA8C554FEA910704EB9C2406FB07FCD5
:101D70004FEA1C4C0CFB0BF7B0EBC74072EB573231
:101D800003FB0CF734BFA2EBC742B2EBC74261EBD7
:101D900057310CFB0EF7B0EBC70072EB57720CFB20
:101DA00008F734BFA2EBC702B2EBC70261EB577171
:101DB00015EB4C254FEA816141EA92114FEA8262AC
:101DC0004FEAD13742EA901206FB07FC44F10004C7
:101DD0004FEA80604FEA1C4C0CFB0BF7D21B03FB55
:101DE0000CF761EB07010CFB0EF7B0EB074072EB51
:101DF00017420CFB08F734BFA2EB0742B2EB0742D5
:101E000061EB174115EB1C154FEA813141EA924114
:101E10004FEA823242EA90424FEA80304FEA0C7633
:101E200044F1000448EA03434EEA0B484FF0000E29
:101E3000B2EB080C71EB030724BF624639464EEB48
:101E40000E0E4FF0000B0018524149414BEB0B0BAB
:101E5000B2EB080C71EB03077BF1000B24BF624669
:101E600039464EEB0E0E4FF0000B0018524149411F
:101E70004BEB0B0BB2EB080C71EB03077BF1000B88
:101E800024BF624639464EEB0E0E51EA020718BFD8
:101E900046F0010616EB0E7655F1000254F10001F2
:101EA00003D5BDE88901BDE80088BDE88901BDE82A
:101EB0000048B619524141EB0101A3F101037047FB
:101EC00080807F7E7D7C7B7A797877767675747377
:101ED000727171706F6E6E6D6C6C6B6A6A69686836
:101EE000676666656464636362616160605F5F5ECC
:101EF0005E5D5D5C5C5B5B5A5A5959585857575642
:101F000056555555545453535252525151505050A6
:101F10004F4F4F4E4E4D4D4D4C4C4C4B4B4B4A4AF8
:101F20004A4949494848484747474746464645453C
:101F30004544444444434343434242424241414175
:101F4000002B9C4630D477002BD01CB54FEA3707C6
:101F500003B44FF010004FF01001BAF1000F06D09B
:101F6000BCF1000FDCBF40F0080040F008014FF06A
:101F700000000FBCBDE810400BF1010BBBF1010FDD
:101F800008BF5FEA170722BF12F1010211F1010138
:101F90004FF0004143F1000300F0004043EA00002D
:101FA0007047F9D35708D0E746EA064613F1400FC9
:101FB0004FEA16461FDD13F1200FDFBF16430A4616
:101FC000002120335B42BED0C3F1200746EA06461B
:101FD00002FA07F74FEA164646EA0706C3F120075A
:101FE00022FA03F201FA07F721FA03F14FF0000396
:101FF00042EA0702A7E746EA020646EA06464FEA31
:10200000164646EA0106BCBF46EA0646360C4FF0C5
:1020100000034FF000024FF0000194E72DE9804CDF
:102020009A46934670B491E8380007C831EA400CEC
:1020300048BF34EA430C03D5FFF7E6FDFFF780FF06
:10204000F0BCBDE8008C2DE9804C9A46934670B4F4
:1020500091E8380007C810F0804F08BF13F0804F98
:1020600003D100F005F8FFF76BFFF0BCBDE8008C72
:1020700020F07F4780EA030023F07F4C07EB0C033E
:10208000A3F57C5300F00040A3F1FE0392F0000F93
:1020900000F0B38095F0000F00F077802DE9014942
:1020A0004FEA11404FEA144621EA004800FB06FCC3
:1020B00024EA064708FB06F607FB08F800FB07F7CB
:1020C00018EB06484CEB164C4FEA124B18EB07483E
:1020D0004FEA15464CEB174022EA0B4E0BFB06FC71
:1020E00025EA06470EFB06F607FB0EFE0BFB07F77D
:1020F0001EEB064E4CEB164C4FF000061EEB074E47
:102100004CEB174B18EB0B0840F1000018EB0E0BD3
:1021100058EB000840F100008F1A4FF000013CBF5F
:10212000C943661B14BFB5EB040C00213CBFC94377
:10213000F61B4FEA17444EEA8E0E27EA04454FEA93
:102140001C4704FB07622CEA074C05FB07F70CFB56
:1021500005F604FB0CFC16EB074642EB174216EBA8
:102160000C4642EB1C421BEB060658EB02024141B7
:1021700046EA9E0601D5BDE80189B619524141EBF8
:102180000101A3F10103BDE801894FEA14454FEABB
:10219000114724EA054621EA074C05FB07F406FB34
:1021A00007F70CFB06F105FB0CFC11EB074144EBB8
:1021B00017444FEA124711EB0C4144EB1C4422EA4E
:1021C000074C05FB07F206FB07F70CFB06F605FBC1
:1021D0000CFC16EB074642EB174216EB0C4642EBA3
:1021E0001C456A1854F1000148BF7047B6195241A6
:1021F00041EB0101A3F10103704795F0000F37D0C7
:102200004FEA11424FEA144721EA024624EA074CFA
:1022100002FB07F106FB07F70CFB06F402FB0CFCC4
:1022200014EB074441EB17414FEA154714EB0C44FC
:1022300041EB1C4125EA074C02FB07F506FB07F7BB
:102240000CFB06F602FB0CFC16EB074645EB1745AC
:1022500016EB0C4645EB1C42121951F1000148BF28
:102260007047B619524141EB0101A3F101037047D8
:102270004FEA14454FEA114724EA054621EA074C84
:1022800005FB07F106FB07F70CFB06F24FF0000613
:1022900005FB0CFC12EB074241EB174112EB0C4221
:1022A00051EB1C4148BF7047921841EB0101A3F16B
:1022B0000103704700BFFEE700BFFEE700BFFEE777
:1022C0002DE9F04145480568444808380668001D76
:1022D00007684FF440730022012140480C3804F095
:1022E00089FA4FF44073022200213C480C3804F074
:1022F000A8FA4FF4407139480C3804F036FA0A2035
:1023000002F0BAF9002413E04FF4807133480C381E
:1023100004F029FA052002F0AFF94FF480712F483C
:102320000C3804F022FA052002F0A6F9601CC4B2B1
:10233000092CE9DB4FF4807128480C3804F015FAB9
:102340004FF4007125480C3804F00DFA052002F016
:1023500093F94FF4007121480C3804F006FA052077
:1023600002F08AF94FF40073012202211B480C3855
:1023700004F040FA4FF400730222012117480C3890
:1023800004F05FFA4FF480730122022113480C38E5
:1023900004F030FA4FF48073022201210F480C3808
:1023A00004F04FFA0E4804F0E7FA00220D490C48F9
:1023B00004F070FA722300221146094804F042FB2F
:1023C000074804F00DFB4FF48061054804F05AFA09
:1023D0000A2002F051F9BDE8F08100000C0402402F
:1023E00000540040801A060000BFFEE700BFFEE771
:1023F00070B5002415E004F1B001C8B200F0AAF8ED
:10240000002000F0A7F8102000F0A4F8002504E058
:10241000002000F033F9681CC5B2802DF8DB601C89
:10242000C4B2042CE7DB70BD10B5642002F024F9BF
:10243000002405E00749085D00F08CF8601CC4B278
:10244000162CF7D3FFF7D4FF0021084600F004F85C
:1024500010BD00000C00002070B504460D4605F1CB
:10246000B001C8B200F076F8102141EA141000F073
:1024700071F804F00F0000F06DF870BD2DE9F04721
:1024800007460E469046994600250024A8F12000F4
:10249000C5B27F2F02DD0027701CC6B2B9F1100F44
:1024A00022D131463846FFF7D7FF002407E004EB7E
:1024B0000511174A505C00F0E1F8601CC4B2082C0A
:1024C000F5DB701CC1B23846FFF7C6FF002408E0F8
:1024D00004EB051108310E4A505C00F0CFF8601C87
:1024E000C4B2082CF4DB11E031463846FFF7B4FFE4
:1024F000002409E005EB4501064A02EB4101085DB5
:1025000000F0BCF8601CC4B2062CF3DBBDE8F08719
:1025100088B9000860B700082DE9F04104460F466D
:102520001546984600260FE0AA5D434639462046E8
:10253000FFF7A4FF04F10800C4B2782C02DD0024E8
:10254000B81CC7B2701CC6B2A85D0028ECD1BDE8AB
:10255000F081000070B50546002045490870084626
:10256000457042F2107440F20161424804F051FAA1
:1025700008B1FFF7A5FE02E0012002F07DF840F26D
:1025800001613C4804F045FA10B1601E041EF3D10D
:1025900094B9FFF795FE42F2107402E0012002F0B8
:1025A0006BF840F20161334804F033FA10B1601E59
:1025B000041EF3D104B970BD2E4804F051FA00BFD7
:1025C0004FF4A0612B4804F024FA0028F8D06FF0F3
:1025D00001027821274804F02BFA00BF40F2015194
:1025E000244804F016FA0028F8D040F2015121489E
:1025F00004F0FBF900BF40F207511E4804F009FA4D
:102600000028F8D01A4B002206211B4802F0A3FC38
:1026100002220621184802F0D3FE4FF4006115484B
:1026200004F0D6F90621144802F09AFB00BF2022DC
:102630000621114802F049FC0028F8D0202206218A
:102640000D4802F023FC06210B4802F079FB002123
:10265000084804F0BDF9074804F007FA00BF054830
:10266000006800F400700028F9D100BFA3E7000063
:1026700004000020005400400060024070B5054690
:102680004020454908700846457042F2107440F2F7
:102690000161424804F0BDF908B1FFF711FE02E004
:1026A000012001F0E9FF40F201613C4804F0B1F97A
:1026B00010B1601E041EF3D194B9FFF701FE42F27F
:1026C000107402E0012001F0D7FF40F201613348AD
:1026D00004F09FF910B1601E041EF3D104B970BD5F
:1026E0002E4804F0BDF900BF4FF4A0612B4804F060
:1026F00090F90028F8D06FF001027821274804F003
:1027000097F900BF40F20151244804F082F90028F3
:10271000F8D040F20151214804F067F900BF40F2BF
:1027200007511E4804F075F90028F8D01A4B002212
:1027300006211B4802F00FFC02220621184802F075
:102740003FFE4FF40061154804F042F90621144899
:1027500002F006FB00BF20220621114802F0B5FB63
:102760000028F8D0202206210D4802F08FFB062118
:102770000B4802F0E5FA0021084804F029F907485F
:1027800004F073F900BF0548006800F400700028E9
:10279000F9D100BFA3E7000006000020005400406C
:1027A0000060024000BFFEE710B507F015F910BD4C
:1027B00000BFFEE710B501F053FF10BD1CB55A482D
:1027C000006840F47000584908605848006840F0BC
:1027D00001005649086000BF5448006800F002003C
:1027E0000028F9D051480830006800F00C00082893
:1027F0006ED100BF0020019002E00198401C0190C2
:1028000001985028F9D34948083000680090009892
:1028100020F0F0000090009840F0800000904349C4
:102820000831009808600020019002E00198401CE7
:10283000019001985028F9D33C4808300068009076
:10284000009820F0F0000090009840F09000009078
:1028500036490831009808600020019002E0019894
:10286000401C019001985028F9D330480830006886
:102870000090009820F0F0000090009840F0A00038
:1028800000902A490831009808600020019002E079
:102890000198401C019001985028F9D32348083032
:1028A00000680090009820F0F0000090009840F040
:1028B000B00000901D490831009808600020019088
:1028C00002E00198401C019001985028F9D300BF04
:1028D000C82000F0A8F815480830006820F0030070
:1028E00012490831086011480068114908400F4931
:1028F00008600846006820F48020086000200B492A
:102900000831086000BF094808300068002000282E
:10291000F9D108480549091D0860002003490C3118
:10292000086008F0C9F91CBD88ED00E000380240DD
:10293000FFFFF6FE1030002410B51749174808F0C5
:1029400022FE38B3154808F07BFD0221144802F03E
:102950003FFD0446224613491348FDF7ADFF4FF4EF
:1029600080711048FEF727F80120104908700221F5
:102970000B4802F0E5F920220221094802F086FA0C
:102980004FF480720221064802F01AFD0221044829
:1029900002F0E6F910BD000004030400001001403D
:1029A0000064024050020020AC0300205D010020C2
:1029B00000BFFEE703B401984100009850EAC1202F
:1029C00018BF04204A0D18BF40F0010040F2FF720A
:1029D000B2EB515F08BF40F00200012808BF05209C
:1029E00002B0704710B5002804DB0A07130E054A31
:1029F000135406E00A07140E034A00F00F031B1FCE
:102A0000D45410BD00E400E018ED00E010B5012042
:102A100004F030F810BD704730380A2801D2012088
:102A200070470020704708B50021009102E000992E
:102A3000491C009100EB8001009AB2EB410FF6D3E4
:102A400008BD816841F00801816000BF816801F024
:102A500008010029FAD1816841F00401816000BFBA
:102A6000816801F004010029FAD1704730B50129CD
:102A700002D0022920D10FE06AB1102A0BD8C36A14
:102A800023F47003C362C36A541E4FF4700505EA51
:102A900004542343C36210E06AB1042A0BD8836B49
:102AA00023F440138363836B541E4FF4401505EAEF
:102AB00004542343836300E000BF00BF30BD000027
:102AC0001CB56A4601A920A002F03CFE0446002C79
:102AD00019D11EA1244804F009F924A12248019A21
:102AE00004F004F900988078420226A11E4804F000
:102AF000FDF80098807801994843420828A11A48B7
:102B000004F0F4F81FE022462BA1174804F0EEF879
:102B10002FA1154804F0EAF80021084602F074FFDE
:102B2000C82001F0A9FD3549002002F06DFF0446E0
:102B300024B933A10C4804F0D9F804E022463BA1A3
:102B4000094804F0D3F81CBD303A000046696C65B2
:102B50002073797374656D207374617475733A2092
:102B60004F4B0D0A000000000010014046726565E1
:102B700020636C7573746572733A20256C750D0A49
:102B800000000000436C75737465722073697A6588
:102B90003A2025642062797465730D0A00000000F4
:102BA000467265652073706163653A20256C7520F7
:102BB0004B420D0A0000000046696C652073797372
:102BC00074656D206572726F723A2025640D0A007B
:102BD000417474656D7074696E6720746F207265DE
:102BE000696E697469616C697A652066696C6520D3
:102BF00073797374656D2E2E2E0D0A00AC040020BF
:102C000046696C652073797374656D207265696EB1
:102C1000697469616C697A6564207375636365734F
:102C20007366756C6C790D0A0000000046696C656E
:102C30002073797374656D207265696E697469615A
:102C40006C697A65206661696C65643A2025640D5B
:102C50000A0000000649096821F4E021054AC2F88B
:102C600004131146D1F804130143C2F8041370474A
:102C7000042301400020014021B1826842F4006237
:102C8000826003E0826822F400628260704781689B
:102C900041F4807181607047816841F40071816006
:102CA0007047816801F0010119B9816841F00101A3
:102CB00081607047012902D0022912D108E083689F
:102CC00023F040538360836843EA0273836009E022
:102CD000836823F440138360836843EA025383606C
:102CE00000E000BF00BF7047012902D0022910D1C7
:102CF00007E0836823F07063836083681343836015
:102D000008E0836823F4702383608368134383603F
:102D100000E000BF00BF704710B5002009490870EF
:102D200020210948FDF769FE00200849086008488D
:102D300002F0FDFCFFF7C4FE06A10F4803F0D6FF2A
:102D400010BD0000DC010020480A0020E001002046
:102D5000680A0020414443207265636F7264696EA3
:102D6000672073797374656D20696E697469616C2D
:102D7000697A65640D0A000000100140F0B51D4637
:102D800006290CDA436B01EB81071F26BE40B343D3
:102D900001EB810602FA06F63343436322E00C2975
:102DA0000EDA036B8E1F06EB86071F26BE40B34369
:102DB0008E1F06EB860602FA06F63343036311E024
:102DC00010290FDAC36AA1F10C0606EB86071F264D
:102DD000BE40B343A1F10C0606EB860602FA06F6E6
:102DE0003343C3620A2A0CDA046902EB420707265E
:102DF000BE40B44302EB420605FA06F634430461D2
:102E000011E0122A0FDCC468A2F10A0606EB46079D
:102E10000726BE40B443A2F10A0606EB460605FAB1
:102E200006F63443C460F0BD012902D002290AD15C
:102E300004E0826842F08042826005E0826842F4E9
:102E40008002826000E000BF00BF7047AAB101F4B9
:102E500080731BB1436843F48073436001F4806363
:102E60001BB1436843F48063436001F00203CBB1BC
:102E7000836843F00203836014E001F480731BB1A4
:102E8000436823F48073436001F480631BB143689B
:102E900023F48063436001F002031BB1836823F0D5
:102EA0000203836070470000F0B5ADF50B7D41482B
:102EB0000078002876D1404802F039FC89AA8AA916
:102EC0003EA002F03FFC06469EB132463CA1484877
:102ED00003F00CFF0021084602F096FD642001F08B
:102EE000CBFB4449002002F08FFD642001F0C4FBBD
:102EF00004E041A13E488A9A03F0F8FE03F0A4FBE7
:102F000007463A4646A14A48FDF7E0FA01224849F9
:102F1000684602F08FFD054655B9684602F007FC89
:102F2000434A44A1324803F0E1FE414802F08AFFDF
:102F30000A223F49204802F07DFD044664B9012081
:102F40001C49087003F080FB41490860384A41A1E0
:102F5000274803F0CBFE24E02346354A44A1244809
:102F600003F0C4FE4DA13248FDF7B0FA0A22304901
:102F7000114802F05FFD044674B901200D49087044
:102F800003F062FB32490860294A00E00AE046A1EA
:102F9000174803F0ABFE04E022464FA1144803F0AB
:102FA000A5FE03E059A1124803F0A0FE0DF50B7D2C
:102FB000F0BD0000DC010020680A0020303A00006B
:102FC00046696C652073797374656D206572726FE4
:102FD000723A2025642C20747279696E6720746FB0
:102FE0002072656D6F756E742E2E2E0D0A00000016
:102FF00000100140AC04002046696C6520737973B1
:1030000074656D204F4B2C206672656520636C756E
:1030100073746572733A20256C750D0A0000000008
:10302000303A2F4144435F256C752E74787400004C
:10303000480A002046696C65206578697374732CB2
:103040002064656C6574696E673A2025730D0A000B
:10305000E0010020414443207265636F7264696E31
:103060006720737461727465643A2025730D0A00D9
:103070004661696C656420746F2063726561746574
:10308000204144432066696C653A20257320284519
:1030900072726F723A202564290D0A00303A2F416E
:1030A00044432E7478740000414443207265636F7A
:1030B0007264696E672073746172746564207769E5
:1030C00074682066616C6C6261636B206E616D6513
:1030D0003A2025730D0A000046616C6C6261636BD7
:1030E0002066696C65206372656174696F6E20612A
:1030F0006C736F206661696C656420284572726F1D
:10310000723A202564290D0A000000004144432042
:103110007265636F7264696E6720616C7265616469
:103120007920696E2070726F67726573730D0A0083
:1031300010B50B48007870B10A4802F027FE094824
:1031400002F0F5FA002006490870074A07A10E4868
:1031500003F0CCFD03E00DA10B4803F0C7FD10BD4B
:10316000DC010020680A0020480A00204144432076
:103170007265636F7264696E672073746F707065D7
:10318000643A2025730D0A00001001404E6F204163
:103190004443207265636F7264696E6720696E20B4
:1031A00070726F67726573730D0A000006490968D3
:1031B00021F01F01054AC2F804131146D1F8041387
:1031C0000143C2F80413704704230140002001406A
:1031D00070B592B01D4800881D4908801D480078D0
:1031E000002830D003F030FA1B4A1268821A61F1CD
:1031F0000001643A71F1000125DB03F025FA16495C
:10320000086003F021FA0546104802882B4613A1F6
:1032100002A8FDF75BF902A8FDF7E4FA064601AB48
:10322000324602A9104802F072FE04461CB90E484C
:1032300002F0ACFD06E022460CA1174803F056FD53
:10324000FFF776FF00BF12B070BD0000080000203D
:103250000A000020DC010020E001002025642D256B
:103260006C750D0A00000000680A002041444320EC
:103270007772697465206572726F723A2025642CCA
:103280002073746F7070696E67207265636F72640B
:10329000696E670D0A000000001001401CB505486A
:1032A000054900231A46CDE900100721034802F022
:1032B000C3F81CBD697A0008017B0008500000209B
:1032C00070B50446002007E051F8205052F8206005
:1032D000354044F82050401C5D1E012606EB551574
:1032E0008542F1D870BD30B501F01F05012404FA04
:1032F00005F33AB14C0950F824401C434D0940F8FD
:10330000254006E04C0950F824409C434D0940F804
:10331000254030BD2DE9F04105460E461446601E9D
:10332000012101EB5010820031462846FDF72EFAAC
:1033300007463846BDE8F0810246480952F8203079
:1033400001F01F0023FA00F000F00100704770B593
:1033500002460B46002400211BE052F82100B8B1C0
:1033600052F821004FF0553505EA5005401B00F09A
:1033700033354FF0333606EA9006A81900EB1015E6
:1033800005F00F3000EB004505EB05252D0E2C4414
:10339000491C581E012505EB50108842DDD82046F7
:1033A00070BD70B50446002007E051F8205052F877
:1033B0002060354344F82050401C5D1E012606EB7A
:1033C00055158542F1D870BD00B589B040F6024070
:1033D00005F068F841F2081005F064F840F6164070
:1033E00005F060F84FF44030FFF734FC0123002271
:1033F0000321384803F0FEF90021374801F0F3FCBF
:10340000364800900120019035480290002003903A
:103410004FF40060049000200690012007904004C3
:1034200008906A4600212C4801F0B2FE00221146A5
:10343000294801F0A5FC0021274801F0C4FC002127
:10344000254801F08DFC0020FFF7B0FE012202218B
:1034500022484C38FFF7FAFC012211021F484C3871
:10346000FFF7F4FC00211D484C38FFF705FC012252
:1034700011461A484C38FFF7F9FA01230A220021B5
:1034800016484C38FFF77AFC0022012113484C38CB
:10349000FFF72AFC0022012110484C38FFF70AFCF4
:1034A0000E484C38FFF7F8FB0C484C38FFF7EFFBA1
:1034B0000A484C38FFF7F5FB012001F0C7F8074830
:1034C0004C38FFF7BEFA012104484C38FFF7ACFC3A
:1034D00009B000BD00080240006402404C200140D9
:1034E0000800002010B540F6014004F0DBFF40F674
:1034F000044004F0D7FF4FF4406004F0D3FF4AF6D5
:10350000802301220021084803F074F901231A46A0
:103510000021064803F06EF901231A4600210448F1
:1035200003F068F910BD00000004024000100240E2
:103530000000024000B589B04FF4406004F0B2FFD3
:1035400040F6154004F0AEFF41F21D0004F0AAFF62
:1035500041F2040004F0A6FF1023002203213048AA
:1035600003F048F9012205212E4801F08FFC0422C6
:1035700005212C4801F08AFC08220521294801F088
:1035800085FC10220521274801F080FC202205211E
:10359000244801F07BFC07220521224801F0F0FBC2
:1035A0002148009021480290402006900120079079
:1035B0000190002003904FF4006004904FF44030DD
:1035C0000890002005906A460521164801F0E0FDAC
:1035D0000521144801F0C4FB1348083800F0D2FF5D
:1035E000002211461048083801F007F800210E4863
:1035F000083800F0F5FF002211460B48083801F0AA
:1036000010F800210848083800F0DDFF00210648C6
:10361000083800F0CBFF07F0FDFC09B000BD00004A
:103620000000024000600240087400400A000020D0
:1036300000B587B040F6014004F034FF41F20E00BF
:1036400004F030FF40F6154004F02CFF4FF46042C8
:1036500005211B4803F058F84FF460430022022173
:10366000174803F0C7F84FF46043022200211448C2
:1036700003F0E7F84FF4805300220121104803F0D3
:10368000B9F84FF48053022200210D4803F0D9F815
:10369000002001904FF482700090002002900320DF
:1036A00005904FF4007003901020069000200490C5
:1036B0006946044807F0EAF907F0B4F807B000BD1E
:1036C000000402400038004010B540F6034004F00A
:1036D000E9FE4FF47C5301221146084803F08AF8B2
:1036E0004FF47C5302220021044803F0AAF84FF45F
:1036F0007C5002492831086010BD0000000C0240D7
:1037000000B589B040F6014004F0CCFE41F215004E
:1037100004F0C8FE40F6154004F0C4FE4FF40072F9
:103720000421304802F0F0FF4FF4807204212D484C
:1037300002F0EAFF4FF4007301220221294803F04E
:1037400059F84FF4007302220121264803F079F85A
:103750004FF4807301220221224803F04BF84FF40A
:103760008073022201211F4803F06BF800221E49DA
:103770001E4803F08FF87223002211461B4803F005
:1037800061F91A4803F02CF94FF48061174803F0EF
:1037900079F80621164801F026FB684601F0A4FDE1
:1037A00040200690134802900020039004900220CD
:1037B00007900E4810300090012001904FF44030E7
:1037C00008906A4606210A4801F0E2FC06210848F2
:1037D00001F0E9FA01220621054801F0D1FA09B009
:1037E00000BD000000040240801A060000540040A2
:1037F000006002400600002000B589B040F6164087
:1038000004F050FE0221404801F0EDFA002006903D
:103810003E480290002003904FF4807007903C488F
:10382000009001200190002004904FF44030089057
:103830006A460221344801F0ABFC0221324801F013
:10384000B2FA04220221304801F09AFA02212E48ED
:1038500001F086FA4FF4406004F024FE41F20410B7
:1038600004F020FE4FF4007207212A4802F04CFFBA
:103870004FF480620721274802F046FF4FF400739F
:1038800001220221234802F0B5FF4FF40073022207
:103890000021204802F0D5FF4FF48063012202216D
:1038A0001C4802F0A7FF4FF4806302220021194850
:1038B00002F0C7FF1648001F07F0CCFD4FF4E131BE
:1038C0001348001F07F048FD04211148001F07F0AE
:1038D00076FE08210E48001F07F079FE40210C48B3
:1038E000001F07F025FE0A48001F07F02BFE0022EC
:1038F0001146252003F02CFA4FF441710448001FB3
:1039000007F034FE09B000BD006402405002002000
:10391000041001400000024010B502F095FE04467C
:1039200001F0B8FD10BD00002DE9F0412DED028B36
:1039300096B004A805F00AFA04461D2C7ED156A1C3
:103940005C4803F0D3F99DF84800082823D2DFE84B
:1039500000F004090E222213181D57A1554803F048
:10396000C5F91DE05FA1534803F0C0F918E068A154
:10397000504803F0BBF913E06EA14E4803F0B6F9CE
:103980000EE074A14B4803F0B1F909E07CA149486D
:1039900003F0ACF904E084A1464803F0A7F900BFA6
:1039A00000BF0C98401C85024FF4007605F07AF9B0
:1039B00000EE100AF8EE400A9FED811A80EE810AAF
:1039C000DFED7F0A80EE201A11EE107A384607F0FC
:1039D0004DFE41EC180B05F065F980468DED008B2E
:1039E000424678A1334803F081F932467EA131483E
:1039F00003F07CF92A4683A12E4803F077F99DF85D
:103A0000102087A12B4803F071F9BDF812208AA17C
:103A1000284803F06BF90598000E8DF8080005980A
:103A2000000C8DF809000598000A8DF80A00059829
:103A3000C0B28DF80B009DF8180000E021E08DF871
:103A40000C0000208DF80D0002AA82A1194803F095
:103A50004DF99DF8190000F00F039DF819000209B7
:103A600081A1144803F042F9079A86A1114803F096
:103A70003DF99DF82400421C8AA10E4803F036F956
:103A800004E022468CA10B4803F030F916B0BDECDF
:103A9000028BBDE8F08100000D0A2A2A2A20534437
:103AA000204361726420496E666F202A2A2A0D0A1B
:103AB00000000000001001404361726420547970DE
:103AC000653A205374616E64617264204361706171
:103AD0006369747920534420436172642056312E07
:103AE000310D0A004361726420547970653A2053A5
:103AF00074616E646172642043617061636974799A
:103B000020534420436172642056322E300D0A0047
:103B10004361726420547970653A2048696768206F
:103B20004361706163697479205344204361726416
:103B30000D0A00004361726420547970653A204D8B
:103B4000756C74696D6564696120436172640D0A06
:103B5000000000004361726420547970653A204887
:103B6000696768204361706163697479204D756C81
:103B700074696D6564696120436172640D0A0000B7
:103B80004361726420547970653A204869676820FF
:103B90005370656564204D756C74696D6564696109
:103BA00020436172640D0A0043617264205479708D
:103BB000653A20556E6B6E6F776E0D0A000000003F
:103BC000000080440D0A2323204465766963652044
:103BD00073697A652069732025644B422028252E5D
:103BE00032664742292323000D0A232320426C6FAB
:103BF000636B2073697A65206973202564422023F2
:103C0000230000000D0A232320426C6F636B2063A6
:103C10006F756E74206973202564202323000000D3
:103C20004D616E7566616374757265722049443AC0
:103C300020307825580D0A004F454D2F4170706C8B
:103C400069636174696F6E2049443A203078255861
:103C50000D0A000050726F64756374204E616D65CB
:103C60003A2025730D0A000050726F64756374204A
:103C70005265766973696F6E3A2025642E25640D4E
:103C80000A00000050726F64756374205365726996
:103C9000616C204E756D6265723A2030782530383F
:103CA000580D0A004353442056657273696F6E3A8B
:103CB0002025642E300D0A000D0A4661696C65648A
:103CC00020746F2067657420534420636172642000
:103CD000696E666F726D6174696F6E2C20657272A9
:103CE0006F7220636F64653A2025640D0A0000003E
:103CF00070B504460D46607801232A4604F1300170
:103D000000F0C8FF08B1032070BD94F82E1294F89B
:103D10002F0241EA00204AF65521884201D00220B4
:103D2000F2E794F86900010694F8680041EA00415E
:103D300094F8670041EA002094F86610084320F0E8
:103D40007F400E49884201D10020DDE794F88500CC
:103D5000010694F8840041EA004194F8830041EAA6
:103D6000002094F88210084320F07F4003498842E5
:103D700001D10020C8E70120C6E7000046415400F9
:103D80002DE9F04103F0FAF9461C41F1000703F078
:103D9000E5F904460D4603F081FA40B1311B67EBAB
:103DA0000500103970F1000001DBA4197D412046A7
:103DB0002946BDE8F081024600E0521C107810B19F
:103DC00010788842F9D11078704700002DE9F74F3C
:103DD00088B0089800680190019800783038079002
:103DE000079809280AD8019840783A2806D10198FE
:103DF000801C019008990198086001E0002007905C
:103E0000079818B10B200BB0BDE8F08FD049079888
:103E100051F82040099804600CB90C20F3E7207891
:103E200078B1607800F05EFF804608F0010040B98C
:103E30000A9820B108F0040008B10A20E3E7002046
:103E4000E1E70020207007986070607800F0DCFEE9
:103E5000804608F0010008B10320D4E70A9820B199
:103E600008F0040008B10A20CDE74FF0000B5946D6
:103E70002046FFF73DFF054600BF012D21D14FF041
:103E8000000ABAF1000F03D0AAF1010000F0FF0A06
:103E90004FF4DF7000EB0A1104F130000F1838798D
:103EA00078B1F87A0106B87A41EA0041787A41EAB5
:103EB0000020397A40EA010B59462046FFF718FFE7
:103EC0000546032D01D101209DE70DB10D209AE794
:103ED0003B20015D94F83C0041EA0020B0F5007FF2
:103EE00001D00D208FE74620015D94F8470041EA9C
:103EF0000029B9F1000F0ED194F85700010694F88B
:103F0000560041EA004194F8550041EA002094F837
:103F1000541040EA0109C4F81C904020065DE67088
:103F2000012E03D0022E01D00D206CE709FB06F90B
:103F30003D20005D0646A07016B1701E304008B1ED
:103F40000D2060E74120015D94F8420041EA002025
:103F50002081207A00F00F0008B10D2053E74320A4
:103F6000015D94F8440041EA00200690069870B97B
:103F700094F85300010694F8520041EA004194F885
:103F8000510041EA002094F85010084306903E206A
:103F9000015D94F83F0041EA00200290029808B9C0
:103FA0000D2030E702984844218900EB111005905C
:103FB000DDE90501814201D20D2024E7DDE905108C
:103FC000401AA178B0FBF1F00490049808B90D20D4
:103FD00019E7012540F6F6710498884200D30225BE
:103FE0004FF6F6710498884200D303250498801C8C
:103FF000A06105985844A062029858442062032D9D
:1040000016D1208908B10D20FDE694F85F00010665
:1040100094F85E0041EA004194F85D0041EA002016
:1040200094F85C1008436062A0698000039014E07B
:10403000208908B90D20E6E6206A48446062022D16
:1040400002D1A069400007E0207E00F00100A169D4
:1040500001EB410100EB51000390E169039800F28C
:10406000FF10B1EB502F01D20D20CCE64FF0FF3006
:1040700020610020E060032D5CD1607194F8601035
:1040800094F8610041EA002058446061607801239F
:1040900004F13001626900F0FDFDE8BB94F82E12D6
:1040A00094F82F0241EA00204AF65521884241D176
:1040B0003320005D01063220005D41EA00413120DD
:1040C000005D41EA002094F83010084321498842FD
:1040D00030D194F81702010694F8160241EA004123
:1040E00094F8150241EA002094F8141208431A4982
:1040F00088421FD194F81F02010694F81E0241EA7B
:10410000004194F81D0241EA002094F81C12084373
:10411000E06094F81B0200E00CE0010694F81A023B
:1041200041EA004194F8190241EA002094F818127B
:1041300008432061257009480088401C80B2074967
:104140000880E0800020E062207100BF5BE6000094
:104150004800002052526141727241614C000020BF
:104160000246891E9069801E884201D8002070474F
:104170009378906A01FB0300F9E7000070B51D25F4
:10418000084C00E0641E802006F008FA08B9002CF4
:10419000F8D114B91325284670BD034806F0F8F984
:1041A0002846F9E7A0860100FF07C0002DE9F04787
:1041B00005460C46207820F04000401E00EB8001B0
:1041C00001EBC00600274FF0010800BF1A48C05D90
:1041D000205C1949C95D2144497840EA0129B8F1B8
:1041E000000F10D0484602F02BF88046FF2E07D271
:1041F0003146761C35F8110002F022F8404508D00F
:104200000020BDE8F0874FF6FF70814501D0002007
:10421000F7E7781C07460D28D8D3207800F0400037
:1042200038B1B8F1000F04D035F8160008B10020FD
:10423000E7E70120E5E70000F8C100082DE9F047B5
:1042400004468946B9F1000F06D1E76817B1A069A5
:10425000B84211D801270FE04946204602F04FF935
:104260000646022E02D20120BDE8F087A069B042C6
:1042700001D93046F8E74F463D4600BF6D1CA069A6
:10428000A84204D80225BD4201D90020ECE7294606
:10429000204602F034F9064606B909E0701C08B160
:1042A000012E01D13046DFE7BD42E7D10020DBE738
:1042B00000BF6FF070422946204603F057FE80464B
:1042C000B8F1000F08D1B9F1000F05D02A464946D0
:1042D000204603F04BFE8046B8F1000F09D1E5609F
:1042E0002069401C68B12069401E20610120607176
:1042F00007E0B8F1010F02D14FF0FF3000E00120DC
:1043000005462846B0E700002DE9F34F83B081460B
:1043100004980068019002E00198401C0190019807
:1043200000782F28F8D0019800785C28F4D0D9F8CC
:104330001CA000252F4600BF38467F1C01990C5C4D
:10434000202C03DB2F2C01D05C2C00D138E0FF2D7A
:1043500003D3062005B0BDE8F08FE4B2812C02DB68
:10436000E0B29F2805DDE0B2E02813DBE0B2FC28D4
:1043700010DC38467F1C01990E5C402E01DB7E2E3E
:1043800005DD802E01DBFC2E01DD0620E2E706EBD9
:10439000042084B20121204601F0C0FE04460CB97D
:1043A0000620D7E7802C06DA214671A0FFF703FD2F
:1043B00008B10620CEE728466D1C2AF81040BBE75E
:1043C00000BF0198C11904980160202C01DA042073
:1043D00000E00020804608E0681E3AF81040202CDB
:1043E00002D02E2C00D002E06D1E002DF4D100BFB3
:1043F0000DB90620AEE700202AF815000B22202177
:10440000D9F8180002F02FFC002700E07F1C3AF8D2
:1044100017002028FAD03AF817002E28F6D00FB14E
:1044200048F0030800E06D1E25B1681E3AF8100040
:104430002E28F8D10020064602904FF0080B00BF4E
:1044400038467F1C3AF8104004B963E0202C03D0B2
:104450002E2C04D1AF4202D048F00308F0E70298B6
:10446000584501D2AF4214D1BBF10B0F02D148F035
:1044700003084FE0AF4201D048F00308AF4200D933
:1044800048E02F46082002904FF00B0BB006060EB6
:10449000D6E7802C09DB204601F0D2FE00210090F7
:1044A00001F03CFE044648F00208FF2C11DDABF1A0
:1044B00001000299884204D848F00308CDF808B0FA
:1044C000BEE72212D9F818300298411C02911A5402
:1044D00019E024B1214629A0FFF76DFC18B15F2433
:1044E00048F003080FE0412C04DB5A2C02DC46F0B4
:1044F000020608E0612C06DB7A2C04DC46F001069B
:10450000A4F1200084B2D9F818300298411C02911D
:104510001C5495E700BFD9F818000078E52803D1AE
:104520000520D9F818100870BBF1080F01D1B006AA
:10453000060E06F00C000C2803D006F0030003283A
:1045400001D148F0020808F0020058B906F0030053
:10455000012801D148F0100806F00C00042801D110
:1045600048F00808D9F8180080F80B800020F1E620
:10457000222A3A3C3E3F7C7F000000002B2C3B3D32
:104580005B5D000010B504460748204440B940F682
:104590001D0003F0ABFF40F61D0003F095FF00E0A7
:1045A00000BF00BF10BD0000008CFFBF21B9026832
:1045B00042F48052026005E0012903D1026842F012
:1045C00080520260704721B9026842F00102026025
:1045D00005E0012903D1026842F48032026070478D
:1045E00021B9026842F00402026005E0012903D10A
:1045F000026842F480220260704739B9036823F0F0
:104600003803036003681343036009E0012907D1FD
:10461000036823F460130360036843EA0243036002
:10462000704739B9036823F0C0030360036813437C
:10463000036009E0012907D1036823F44003036004
:10464000036843EA024303607047000003490860BF
:1046500000BF024909680029FBD170470000002013
:104660000448006820B103480068401E0149086002
:1046700070470000000000202DE9F0410746114876
:104680000068A7FB005006460F4800685A2802DD64
:104690000D48006800E05A200446E017611BB04155
:1046A00001DBBDE8F0812D1B66EBE47601F0FCFF39
:1046B00045194E4100BF01F0F7FF401BB141FADB45
:1046C00000BFEEE710020020080200202DE9F047AD
:1046D00004460021204600F049FA074617B1384643
:1046E000BDE8F0874FF0FF09CA4600BF2169206886
:1046F00002F0C3FA074607B154E065692E780EB997
:1047000004274FE0E87A00F03F08E52E05D008F0D6
:10471000080028B1B8F10F0F02D04FF0FF093AE0BE
:10472000B8F10F0F1CD1E069A0B306F0400030B122
:1047300095F80DA026F04006B146E08820844E454D
:104740000AD1687B504507D12946E069FFF72EFD65
:1047500010B1A9F1010000E0FF2000F0FF091AE00C
:10476000B9F1000F05D1284606F0A9F9504500D14E
:1047700018E04FF0FF094FF6FF702084A069C07A5F
:1047800000F0010030B90B222846A16902F04BFA73
:1047900000B907E0FFE70021204600F006F80746D1
:1047A000002FA3D000BF38469AE72DE9F041044618
:1047B000884600BFE088401C86B20EB1206910B95F
:1047C0000420BDE8F08106F00F0000286FD12069B9
:1047D000401C2061E06828B920680089B04266DC8E
:1047E0000420EEE720688078401E00EA16100028BA
:1047F0005DD1E168206801F082FE0546012D01D8F7
:104800000220DEE7681C08B90120DAE72068806929
:10481000A84246D8B8F1000F01D10420D1E7E168E1
:104820002068FFF70BFD05460DB90720C9E7012DEC
:1048300001D10220C5E7681C08B90120C1E70021A9
:10484000206802F01AFA08B10120BAE7216801F1E4
:1048500030004FF40072002102F005FA294620686A
:10486000FFF77EFC2168C862002710E00120216864
:1048700008710021206802F000FA08B10120A0E7C9
:104880002068C06A401C2168C862781CC7B22068D2
:104890008078B842EADC2068C06AC01B2168C86220
:1048A00000BFE56029462068FFF75AFC2061E680DA
:1048B0002068303006F00F0100EB411060610020ED
:1048C0007FE72DE9F04704464FF0FF09CA46042769
:1048D0004CE02169206802F0D0F9074607B148E0B2
:1048E000666935780DB9042743E0F07A00F03F0897
:1048F000E52D07D02E2D05D008F0080028B1B8F11D
:104900000F0F02D04FF0FF0929E0B8F10F0F1AD1B5
:1049100005F0400030B196F80DA025F04005A946FD
:10492000E08820844D450AD1707B504507D131463F
:10493000E06902F0C1FC10B1A9F1010000E0FF2024
:1049400000F0FF090BE0B9F1000F04D1304606F08A
:10495000B6F8504502D04FF6FF70208409E00021E0
:104960002046FFF722FF074607B102E02069002832
:10497000AFD100BF0FB1002020613846BDE8F087FD
:104980002DE9F04F85B00446D4F81880D4F81CB057
:104990000C22414601A802F059F900BF9DF80F0012
:1049A00000F0010030B3002088F80B00E06101271F
:1049B0000DE03B465A4601A9404601F03BFD20462A
:1049C000FFF784FE054605B103E0781C87B2642F2B
:1049D000EFDB00BF642F03D1072005B0BDE8F08FE7
:1049E000042D01D02846F8E79DF80F0088F80B0049
:1049F000C4F81CB09DF80F0000F0020070B1002652
:104A000001E0701C86B23BF816000028F9D106F1CF
:104A100019000D2190FBF1F086B200E00126002183
:104A2000204600F0A3F805460DB12846D5E7002042
:104A30000746049000BF2169206802F01EF9054670
:104A400005B119E0606990F80090B9F1E50F02D066
:104A5000B9F1000F08D10FB9E0880490781C80B23A
:104A60000746B04201D107E0002701212046FFF7A9
:104A70009CFE0546002DDED000BF4DBB012E27DD7C
:104A80002046049900F072F805460DBBA06906F0B7
:104A900016F80090701E86B200BF2169206802F0EF
:104AA000ECF8054605B112E0F2B26169E069009BDD
:104AB00001F02EFC01202168087100212046FFF73B
:104AC00074FE05461DB9701E80B2061EE5D100BFFA
:104AD000D5B92169206802F0D0F80546A5B9D4F807
:104AE00014A020220021504602F0BDF80B225046AF
:104AF000A16902F0ABF8A069C07A00F018008AF84A
:104B00000C00012021680871284666E770B504464C
:104B1000E688208C4FF6FF72904201D1304600E0CB
:104B2000208C0146204600F021F80546E5B900BF7B
:104B30002169206802F0A1F8054605B110E0E520E2
:104B400061690870012021680871E088B04200DBCB
:104B500006E000212046FFF728FE0546002DE7D09D
:104B600000BF042D00D10225284670BD2DE9F0417B
:104B700004460E46E680A568012D03D020688069B2
:104B8000A84202D80220BDE8F0812DB92068007843
:104B9000032801D12068456A65B9E560206800896D
:104BA000B04201DC0220EEE72068406A00EB1610FC
:104BB000206120E020688078070112E02946206803
:104BC00001F09DFC0546681C08B90120DBE7022DB9
:104BD00003D320688069A84201D80220D3E7F01BE4
:104BE00086B2BE42EADAE56029462068FFF7B8FAE5
:104BF00000EB161020612068303006F00F0100EB4A
:104C0000411060610020BEE730B593B0054600203A
:104C10000090002D39D104F0BBFE04461D2C04D1B8
:104C200001A804F093F8044602E0012013B030BD5F
:104C30001D2C05D1BDF8480004F076FA044601E0C9
:104C40000120F3E7684604F0DFFA0446009800F01C
:104C5000007008B100BFFEE71D2C05D14FF40060C5
:104C600003F058FF044601E00120DFE71D2C04D1CA
:104C7000002005F0A7FB044601E00120D6E71D2C2B
:104C800001D10020D2E70120D0E70120CEE7034682
:104C9000002070472DE9F04107460C4615461E4698
:104CA0004FF01C0814B90420BDE8F0810EB90420AF
:104CB000FAE787B9012E06D169027202204603F095
:104CC0008DFC804607E0690233464FF400722046AF
:104CD00004F01AFF8046B8F11D0F01D10020E3E770
:104CE0000120E1E7014609B9002070470120FCE7F7
:104CF0002DE9F04107460C4615461E464FF01C08AC
:104D000014B90420BDE8F0810EB90420FAE787B990
:104D1000012E06D169027202204603F06BFD804627
:104D200007E0690233464FF40072204605F03AF876
:104D30008046B8F11D0F01D10020E3E70120E1E733
:104D400010B501EB4102D30000F11002D25822F05D
:104D5000010301EB4102D40000F11002135110BD18
:104D600010B501EB4102D30000F11002D25842F01D
:104D7000010301EB4102D40000F11002135110BDF8
:104D800030B5134601EB4104E50000F1100462590F
:104D900022F0606242EA436201EB4104E50000F167
:104DA0001004625130BD10B501EB4102D30000F197
:104DB0001002D25822F4807301EB4102D40000F1BA
:104DC0001002135110BD10B501EB4102D30000F1E8
:104DD0001002D25842F4807301EB4102D40000F17A
:104DE0001002135110BD10B501EB4102D30000F1C8
:104DF0001002D25822F0010301EB4102D40000F16D
:104E000010021351002301EB4102D40000F1100203
:104E1000135101EB4102D40000F11402135101EBD4
:104E20004102D40000F11802135101EB4102D400F9
:104E300000F11C02135101EB4102D40000F12002E9
:104E40001351212301EB4102D40000F1240213513C
:104E500004290CDA01EB41025300C1F3400203EBD9
:104E600082033D229A4083681A4382600DE00A1F44
:104E7000D1B201EB41025300C1F3400203EB8203C4
:104E80003D229A40C3681A43C26010BD10B5042980
:104E90000CDA01EB41035C00C1F3400304EB830334
:104EA00002FA03F38468234383600DE00B1FD9B239
:104EB00001EB41035C00C1F3400304EB830302FAFE
:104EC00003F3C4682343C36010BD10B5034604292F
:104ED0000FDA01EB41004400C1F3400004EB800411
:104EE00002FA04F01C68204008B1012010BD002027
:104EF000FCE7081FC1B201EB41004400C1F34000D0
:104F000004EB800402FA04F05C68204008B1012040
:104F1000ECE70020EAE730B572B901EB4103DC00B1
:104F200000F110031B5923F0200401EB4103DD00C5
:104F300000F110035C510DE001EB4103DC0000F1D6
:104F400010031B5943F0200401EB4103DD0000F185
:104F500010035C5130BD30B532B101EB4104E500C6
:104F600000F12004635105E001EB4104E50000F18C
:104F70001C04635130BD000070B501EB4104E50035
:104F800000F124046459156A45F004052C4301EB33
:104F90004105EE0000F12405AC5101EB4104E600AF
:104FA00000F118041568A55101EB4104E60000F179
:104FB0001C04D568A55101EB4104E60000F114047E
:104FC000D56AA55101EB4104E50000F110046359D5
:104FD000414C2340156954682C43156B2C43956A4A
:104FE0002C4395692C43D5692C43234301EB4104A1
:104FF000E50000F110046351946874B901EB4104B9
:10500000E50000F11004645944F4007501EB41041B
:10501000E60000F11004A5511FE09468012C0ED1A8
:1050200001EB4104E50000F11004645924F400751B
:1050300001EB4104E60000F11004A5510DE001EB85
:105040004104E50000F11004645944F4004501EB0B
:105050004104E60000F11004A551546974B901EB54
:105060004104E50000F11004645944F4806501EB4B
:105070004104E60000F11004A5510DE001EB4104EC
:10508000E50000F11004645924F4806501EB41044B
:10509000E60000F11004A551546A74B901EB410413
:1050A000E50000F11004645944F4807501EB4104FB
:1050B000E60000F11004A5510DE001EB4104E5000C
:1050C00000F11004645924F4807501EB4104E600FA
:1050D00000F11004A55170BD3F871CFE30B58DB0A6
:1050E00004460D46012203212748FFF7CFFE042284
:1050F00003212548FFF7CAFE082203212248FFF7B3
:10510000C5FE102203212048FFF7C0FE2022032104
:105110001D48FFF7BBFE03211B48FFF711FE0321CB
:105120001948FFF760FE19480090039400200A9088
:105130000B9001200290002005904FF480500190C8
:10514000800004904FF440300C904FF40010079012
:105150008000069003200890012009906A460321F0
:105160000948FFF709FF012203210748FFF7D3FE93
:10517000042203210448FFF703FE03210248FFF73E
:10518000EFFD0DB030BD000000640240802C0140F6
:1051900070B501EB4104E50000F12404645924F0EA
:1051A000040501EB4104E60000F12404A55101EBE4
:1051B0004104E60000F118041568A55101EB410413
:1051C000E60000F11C049568A55101EB4104E600DE
:1051D00000F11404D569A55101EB4104E50000F18B
:1051E000100463593F4C2340146944EA8404156A4F
:1051F0002C4395692C43234301EB4104E50000F166
:1052000010046351546874B901EB4104E50000F1E6
:105210001004645944F4007501EB4104E60000F108
:105220001004A5511FE05468012C0ED101EB41047C
:10523000E50000F11004645924F4007501EB410409
:10524000E60000F11004A5510DE001EB4104E5007A
:1052500000F11004645944F4004501EB4104E600F8
:1052600000F11004A551D46874B901EB4104E500C4
:1052700000F11004645944F4806501EB4104E60038
:1052800000F11004A5510DE001EB4104E50000F12F
:105290001004645924F4806501EB4104E60000F138
:1052A0001004A551546974B901EB4104E50000F103
:1052B0001004645944F4807501EB4104E60000F1E8
:1052C0001004A5510DE001EB4104E50000F11004CC
:1052D000645924F4807501EB4104E60000F11004E8
:1052E000A55170BD3F87FCFF002101600121416095
:1052F000002181600121C160002101610121416122
:1053000000218161C16101627047000030B58DB03C
:1053100004460D46012203212748FFF7B7FD04226A
:1053200003212548FFF7B2FD082203212248FFF799
:10533000ADFD102203212048FFF7A8FD2022032104
:105340001D48FFF7A3FD03211B48FFF7F9FC0321CC
:105350001948FFF748FD19480090039440200A902F
:1053600000200B9001200290002005904FF4805007
:105370000190800004904FF440300C904FF40010E6
:1053800007908000069001200990032008906A464B
:1053900003210948FFF7F0FD012203210648FFF72A
:1053A000BAFD042203210448FFF7EAFC0321024866
:1053B000FFF7D6FC0DB030BD00640240802C0140E8
:1053C00010B501EB4103DC0000F114031A5110BDCC
:1053D000024601EB4100C30002F11400C0587047BF
:1053E0002DE9F0410746134C00250DE0C5EBC50340
:1053F000226802EB8300E1698847804642462946DD
:105400003846FDF770FF6D1CA088A842EEDC2669C7
:10541000A5880AE0301DE169884780464246294652
:105420003846FDF760FF36686D1C002EF2D1BDE8EE
:10543000F0810000500300202DE9F04782460D4620
:1054400016461F46DDE90889114CB9F1000F02D05C
:10545000B8F1000F02D10020BDE8F0873C212046C2
:10546000FBF7CBFAC4F800A0A580A660A781C4F81A
:105470001890C4F81C80002084F830004FF6FF70AC
:105480006086002060634FF4FA70A0630120E3E7B8
:10549000500300201CB5044600200090019068468F
:1054A000FFF79EFF2146684600F05EF81CBD2DE91F
:1054B000FC4707460D4616461C46DDF82880214667
:1054C0003046FDF739FF00F0FF0921462846FDF779
:1054D00033FF00F0FF0A002043464A465146CDE91B
:1054E0000040384602F088FBBDE8FC872DE9FF4705
:1054F00006460F4615461C46DDF830800020029017
:10550000039040212046FDF722FF08B9BDE8FF8740
:1055100040232246294602A8FDF7D2FE402221461A
:1055200002A8FDF7F7FE08B9012000E0002081463F
:1055300040232246394602A8FDF7C2FE40222146FA
:1055400002A8FDF7E7FE08B9012000E0002082462E
:105550000120811E43464A46CDE90010514630469F
:1055600002F04AFB00BFD1E72DE9FE4F074688460F
:105570006C4C94F8300000F0010ABAF1000F0ED024
:1055800004F1280B402002900298401E012202EBF9
:10559000501081005846FBF730FA00BF00BFBAF147
:1055A000000F49D0002521E000200190029005EB7A
:1055B000C501A06800EB810B40235A46394601A87B
:1055C000FDF77EFE4022594601A8FDF7A3FE08B96B
:1055D000012000E000200090009830B140235A469E
:1055E00004F128010846FDF7DCFE6D1CA089A842E5
:1055F000DADC66691EE000200190029006F1040BDF
:1056000040235A46394601A8FDF75AFE4022594622
:1056100001A8FDF77FFE08B9012000E000200090FE
:10562000009830B140235A4604F128010846FDF79E
:10563000B8FE3668002EDED1002518E0BAF1000F62
:1056400006D0294604F12800FDF776FE00B10DE0F2
:10565000CDF80080C5EBC502216801EB82002B4626
:105660003A4604F12001FFF722FF00BF6D1CA0881D
:10567000A842E3DCD4F81090A58817E0BAF1000F37
:1056800006D0294604F12800FDF756FE00B10AE0D5
:105690002B463A4604F1200109F10400CDF80080C0
:1056A000FFF705FF00BFD9F800906D1CB9F1000F9E
:1056B000E4D1002512E0CDF8008005EBC502A16819
:1056C00001EB820305EBC50201EB820101F1080049
:1056D0003A4604F12001FFF709FF6D1CA089A8429A
:1056E000E9DC66690AE0331D3A4604F1200106F15F
:1056F0000C00CDF80080FFF7F9FE3668002EF2D1DD
:1057000004F120004FF0400B0290ABF101000121A9
:1057100001EB5010820039460298FBF712F900BFE6
:10572000BDE8FE8F500300200246501A704770B546
:105730000446204600F02AFB05460DB900202060F3
:10574000284670BD2DE9F74F82B08B4614460022E3
:10575000214602A8FEF73AFB01900198002877D174
:10576000206801698069801E814204D82068006930
:10577000CBF800006CE0206890F800A00026BAF199
:10578000010F1DD1022700BF3946206800F0B7FE87
:10579000804608F1010010B9012001900FE0B8F136
:1057A000010F02D10220019009E0B8F1000F00D1F1
:1057B000761C781C0746216889698842E4D33DE05D
:1057C000206887692068006A00904FF00009002572
:1057D00000BFB9F1000F0FD1009A531C114600937E
:1057E000206801F04AFA0190019800B125E0206894
:1057F00000F130054FF40079BAF1020F09D1287891
:10580000697840EA012000B9761CAD1CA9F10209B3
:1058100010E0E8780006A97840EA0140697840EA9B
:1058200001202978084320F0704000B9761C2D1D16
:10583000A9F10409781E071ECBD100BF20680661BC
:10584000BAF1030F02D1012021684871CBF8006042
:10585000019805B0BDE8F08F2DE9F04704460E46EB
:10586000A188206805F0BBFE8246BAF1000F02D085
:105870005046BDE8F087A07900F0800008B1022012
:10588000F7E7E068B04204D2A07900F0020000B966
:10589000E668D4F808904FF00008C4F80880002E9D
:1058A00077D0206880784702B9F1000F11D0701EC0
:1058B000B0FBF7F1A9F10100B0FBF7F0814208D38A
:1058C000A9F10100791E8843A060A068361A6569B5
:1058D00018E02569ADB900212068FEF7AFFC054648
:1058E000012D05D1A07940F08000A0710220C0E711
:1058F000681C28B9A07940F08000A0710120B8E7A9
:1059000025616561002D44D029E0A07900F00200F6
:1059100038B129462068FEF791FC054635B93E4668
:105920001FE02946206800F0EAFD0546681C28B9FA
:10593000A07940F08000A07101209AE7012D03D9E1
:1059400020688069A84205D8A07940F08000A07145
:1059500002208EE76561A0683844A060F61BBE4255
:10596000D3D800BFA0683044A060C6F3080068B177
:1059700029462068FEF7F4FB8046B8F1000F06D1F7
:10598000A07940F08000A071022072E701E008EBEE
:1059900056282089C0F3080050B3A069404527D09D
:1059A000A07900F0400090B121684878012304F10B
:1059B0002401A269FFF79CF928B1A07940F080008A
:1059C000A071012055E7A07920F04000A071216866
:1059D00048780123424604F12401FFF75BF928B11E
:1059E000A07940F08000A071012042E7C4F818803F
:1059F000D4E90201884205D9A068E060A07940F0AE
:105A00002000A071504634E70246012A01DB0B203A
:105A10007047074850F822300BB10020187009B1C8
:105A200000200870024840F822100020F0E7000033
:105A3000480000202DE9F7478DB0054616460020A6
:105A4000286006F01F0626F0010204A90EA8FEF742
:105A5000BDF907464FF4007000F0E5FB8246BAF14D
:105A6000000F03D1112010B0BDE8F087CDF82CA0B5
:105A700001A80A9027B904A80E9900F089FC0746EE
:105A8000099C0FB904B9062706F01C00002858D05D
:105A90004FB1042F03D104A8FEF772FF074646F06A
:105AA0000806099C09E0E07A00F0110008B1072718
:105AB00003E006F0040000B10827002F40D106F0F3
:105AC000080000283CD000F08CFD804684F80E8051
:105AD0004FEA1821E1734FEA184121744FEA186127
